:10000000DBC00000F5C00000F3C00000F1C000003C
:10001000EFC00000EDC00000EBC00000E9C0000030
:10002000E7C00000E5C00000E3C0000085C7000095
:10003000DFC00000DDC00000DBC00000ABC400007A
:10004000D7C00000D5C00000D3C00000D1C0000060
:10005000CFC00000CDC00000CBC0000006C400002F
:100060009DC30000C5C00000C3C00000C1C00000A7
:10007000BFC00000670889087D0989087D09D0088C
:10008000F2087D094F09610909025400030100C00B
:1000900032090400000103000000092111010001E0
:1000A000221A000705810340000A09040100010328
:1000B000000000092111010001227A0007058203D6
:1000C00008000209040200010300000009211101D7
:1000D0000001221A000705830340000A0600FF09F9
:1000E00001A101150025FF750895400902810295BF
:1000F0000809039102C005010906A1018501050750
:1001000019E029E71500250175019508810295067A
:1001100075082565190029658100C0050C0901A134
:100120000185021500250109E909EA750195028199
:100130000209E29501810695058103C005010905C3
:10014000A1010901A10085070930093109320933EC
:10015000093409351581257F75089506810215003A
:100160002501750195080509190129088102C0C0FA
:100170000600FF0901A101150025FF75089540093A
:10018000018102950809019102C01E034C0057002D
:1001900043006C006F006E006500550032002000C7
:1001A000760031002E003000000008036E002F00A2
:1001B000610000000403090411241FBECFEFD2E048
:1001C000DEBFCDBF11E0A0E0B1E0E2EFF3E102C09D
:1001D00005900D92AA3BB107D9F711E0AAEBB1E067
:1001E00001C01D92A33DB107E1F703D00C94F709BC
:1001F00007CFCF93DF93CDB7DEB72C970FB6F89428
:10020000DEBF0FBECDBF94B784B7877F84BF88E1C0
:100210000FB6F89480936000109260000FBE93FFB9
:1002200018C08091D3019091D401A091D501B091D3
:10023000D6018C379142A84BB24459F41092D301A5
:100240001092D4011092D5011092D601E0E0F0E3B3
:10025000099590E080E80FB6F89480936100909340
:1002600061000FBE83B7817F83BF8091840090912E
:1002700085008058914C909389008093880081E09C
:100280008093810082E080936F00EBD14ED34ED3F8
:100290004CE050E060E170E08E010F5F1F4FC8013D
:1002A0000E94B60989819A81AB81BC81823B9741CA
:1002B000A842B64AB1F08CE0F80111928A95E9F7AC
:1002C00082EB97E1A8E2B6EA89839A83AB83BC8389
:1002D00083E08D834CE050E060E170E0C8010E9453
:1002E000E0098D81806F90E0CED017D678940E947F
:1002F00096098091CA018430D1F712E00E949609D4
:100300001093E9008091E80080FF14C0A8D2009704
:1003100089F0FC0160812EEF260F273050F470E049
:1003200040E050E001967BD38091E8008E77809387
:10033000E80098D280E090E00CD2E0CF08950895D4
:1003400042E361EC81E015D542E361EC83E011D535
:1003500042E061EC82E00DC50F931F93CF93DF93D2
:10036000CDB7DEB728970FB6F894DEBF0FBECDBF6E
:100370008091CC01813019F08930A9F079C0809149
:10038000CB01813A09F074C08091E800877F8093A7
:10039000E800198261E070E0CE0101968AD3809175
:1003A000E8008B775CC08091CB01813209F060C09E
:1003B0008091E800877F8093E800E4D18C0100976A
:1003C00009F450C028E0FC012193CF0168E070E0FF
:1003D000CAD3F8018181813409F03DC062818381F3
:1003E0008F3F09F038C084818F3FA9F585818F3F09
:1003F00091F586818F3F79F587818F3F61F59085F3
:10040000862F8095981327C06F7084E190E0C6D73F
:1004100036D58091E00081608093E000F894FFEF92
:1004200024E38CE0F15020408040E1F700C0000060
:1004300098E088E10FB6F894A895809360000FBE0D
:10044000909360001092D3011092D4011092D501C4
:100450001092D601FFCF99D18091E8008E778093DA
:10046000E80006C068E070E0CE0101967CD3F4CFCE
:1004700028960FB6F894DEBF0FBECDBFDF91CF91A7
:100480001F910F91089580932A0190932B0128E0EA
:1004900033E030932D0120932C012CE430E0309395
:1004A00003012093020127E530E0309305012093FA
:1004B000040123E430E030930701209306014DE26C
:1004C00050E0509309014093080120E330E030935D
:1004D0000B0120930A0130930D0120930C013093FE
:1004E0000F0120930E0121E330E03093110120939E
:1004F00010015093130140931201282F22952F7061
:100500002A3010F4205D01C0295C30E030931501E1
:10051000209314018F708A3010F4805D01C0895CD3
:1005200090E090931701809316018DE290E09093F4
:1005300019018093180180E390E090931B01809350
:100540001A0183E390E090931D0180931C0184E3E2
:1005500090E090931F0180931E010895CF93DF9345
:100560001F92CDB7DEB7E92FFF272115310511F016
:10057000D90102C0DE0111961C92E330F105C9F0E9
:100580005CF4E130F10571F0329709F05FC084E569
:1005900090E028E830E05EC0E132F10569F1B29701
:1005A000B1F154C082E08C9382E190E020E231E02E
:1005B00051C0992781309105B1F034F4892B09F0AD
:1005C00045C0E4EBF1E014C08230910579F0039767
:1005D00009F03CC082E0F90180838091000190E045
:1005E00020E031E037C0EAEAF1E002C0EAE8F1E0F9
:1005F000849190E09F012EC06623A1F06230B9F093
:10060000613021F589E090E023EB30E023C06623E0
:1006100099F06230B1F06130C9F48AE790E026EFDA
:1006200030E018C089E090E02AE930E013C089E0AA
:1006300090E02CEC30E00EC08AE190E020E731E061
:1006400009C08AE190E02CED30E004C080E090E049
:1006500020E030E0FA01318320830F90DF91CF91C9
:10066000089580E190E09093CD008093CC0080913C
:10067000C80082608093C8008091C9008860809320
:10068000C9002FEF8AE693E0215080409040E1F7C7
:1006900000C000008091C80085FFFCCF8BE18093F3
:1006A000CE008091C80085FFFCCF1092CE008091D3
:1006B000C80085FFFCCF1092CE008091C80085FF56
:1006C000FCCF83E08093CE008091C80085FFFCCFF3
:1006D0008EE08093CE008091C80085FFFCCF81E141
:1006E0008093CE008091C80085FFFCCF1092CE0091
:1006F0008091C80085FFFCCF1092CE008091C80089
:1007000085FFFCCF87E08093CE002FEF8DEE92E047
:10071000215080409040E1F700C000008091C80067
:100720008D7F8093C8008091C900877F8093C90026
:1007300083E090E09093CD008093CC008091CA003C
:1007400086638093CA008091C9008C698093C90038
:100750000895CF93DF93EC01009719F058D1C80F9B
:10076000D91F83B7816083BF889583B78E7F83BF8E
:10077000209729F04CD18C1B9D0B97FDF2CFDF9178
:10078000CF91089586E791E0EAC086E791E0FCD03A
:10079000E9ECF0E080818062808308951F920F92DF
:1007A0000FB60F9211242F933F934F935F936F9344
:1007B0007F938F939F93AF93BF93EF93FF9380911A
:1007C000BF01811122C086E791E0B1D09093BE01B4
:1007D0008093BD01009731F48091C9008F7D809393
:1007E000C9002CC0FC01808190917801891720F00C
:1007F00086E791E0AED022C09091C90091609093BD
:10080000C9008F5F8093BF0105C08091C9008E7FB2
:100810008093C900E091BD01F091BE01CF01019626
:100820009093BE018093BD0180818093CE00809122
:10083000BF0181508093BF018823D1F2FF91EF91D6
:10084000BF91AF919F918F917F916F915F914F91E8
:100850003F912F910F900FBE0F901F90189582E33C
:1008600091E065C082E391E074C01F920F920FB6D1
:100870000F9211242F933F934F935F936F937F9326
:100880008F939F93AF93BF93CF93EF93FF938091F9
:10089000C8009091C900C091CE008C7119F01092DF
:1008A000BC0131C0892F827091FD1092BC019091E2
:1008B000BC01911113C0882331F180913401C81714
:1008C00010F582E391E04BD09093BB018093BA0185
:1008D000892BC9F081E08C0F8093BC01E091BA01B3
:1008E000F091BB01CF0101969093BB018093BA01B7
:1008F000C0838091BC0181508093BC01811103C0F1
:1009000082E391E041D0FF91EF91CF91BF91AF9100
:100910009F918F917F916F915F914F913F912F9117
:100920000F900FBE0F901F90189508950895FC0129
:1009300091818081981751F020819381292330E0A3
:100940002C5F3F4FCF01820F931F089580E090E00E
:100950000895FC0190818281890F80830895FC01B4
:10096000238181819081891B922F981B9F3F49F0A1
:100970008181282330E02C5F3F4FCF01820F931FEE
:10098000089580E090E00895FC0191818281890FB3
:10099000818308951F920F920FB60F9211242F9307
:1009A0003F938F939F932091840030918500809195
:1009B000C4019091C5012817390748F48091C201FC
:1009C0009091C30101969093C3018093C20130932B
:1009D000C5012093C4018091C0019091C10101968D
:1009E0009093C1018093C00180918800909189000B
:1009F0008058914C90938900809388009F918F91AB
:100A00003F912F910F900FBE0F901F9018952FB709
:100A1000F8948091C0019091C1012FBF0895CF92A9
:100A2000DF92EF92FF920F931F93CF93DF93EC012E
:100A30008B017A01F2D1811133C0E114F10439F054
:100A4000F70180819181081B190BC80FD91FC12C98
:100A5000D12C0115110519F18091E80085FD16C012
:100A60008091E8008E778093E80060D4E114F1046F
:100A700049F0F70180819181C80ED91ED182C082D0
:100A800085E00EC0CAD1882321F30AC089918093E2
:100A9000F10001501109FFEFCF1ADF0ADACF80E031
:100AA000DF91CF911F910F91FF90EF90DF90CF904A
:100AB00008952091D1013091D2012617370748F0CF
:100AC0006115710539F42091E8002E772093E80034
:100AD00001C0B90140E06115710581F12091CA01A1
:100AE0002223E9F12530E9F12091E80023FD35C00A
:100AF0002091E80022FD2BC02091E80020FFEBCFE1
:100B00002091F20030E0FC01CF016115710559F030
:100B10002830310540F481918093F10061507109D2
:100B20002F5F3F4FF1CF41E02830310509F040E021
:100B30002091E8002E772093E800CDCF4111CECF51
:100B400006C08091CA01882351F0853051F0809110
:100B5000E80082FFF6CF80E0089581E0089582E00A
:100B6000089583E008956115710529F42091E80046
:100B70002B772093E800FC016115710521F180912C
:100B8000CA01882341F1853041F18091E80083FD5D
:100B900020C08091E80082FFEFCF8091F20088238F
:100BA00031F08091F100819361507109B1F780912A
:100BB000E8008B778093E800DFCF8091CA0188231B
:100BC00051F0853051F08091E80080FFF6CF80E051
:100BD000089581E0089582E0089583E008952091CA
:100BE000D1013091D2012617370748F06115710500
:100BF00039F42091E8002E772093E80001C0B90174
:100C0000FC0120E06115710569F18091CA0188231A
:100C1000D1F18530D1F18091E80083FD32C080911F
:100C2000E80082FD28C08091E80080FFEBCF809132
:100C3000F20090E06115710559F08830910540F49B
:100C400024912093F1003196615071090196F2CF01
:100C500021E0089709F020E08091E8008E778093EA
:100C6000E800D0CF2111D1CF06C08091CA018823DE
:100C700051F0853051F08091E80082FFF6CF80E09E
:100C8000089581E0089582E0089583E00895CF9269
:100C9000DF92EF92FF920F931F93CF93DF93EB01BD
:100CA0002091D1013091D2012617370740F02097CB
:100CB00039F42091E8002E772093E80001C0E90183
:100CC0008C0180E02097C1F19091CA01992309F429
:100CD00044C0953009F443C09091E80093FD3BC0B7
:100CE0009091E80092FD31C09091E80090FFEACF2A
:100CF000C090F200D12C7601C7018C199D09800F9C
:100D0000911F209761F028E0E216F10440F43ED3F1
:100D10008093F10021972FEFE21AF20AEDCF8C01B8
:100D200081E098E0E916F10409F080E09091E80094
:100D30009E779093E800C6CF8111C6CF06C0809100
:100D4000CA01882351F0853051F08091E80082FF7C
:100D5000F6CF80E005C081E003C082E001C083E0FF
:100D6000DF91CF911F910F91FF90EF90DF90CF9087
:100D70000895982F953058F59093E900981739F019
:100D80007091EC002091ED005091F00003C0242FF1
:100D9000762F50E021FF19C03091EB003E7F309359
:100DA000EB003091ED003D7F3093ED003091EB0092
:100DB00031603093EB007093EC002093ED00509382
:100DC000F0002091EE0027FF07C09F5FD3CF8F7008
:100DD0008093E90081E0089580E008958091CB013F
:100DE00087FF11C08091E80082FD05C08091CA0193
:100DF0008111F8CF11C08091E8008B770BC08091F2
:100E0000CA01882349F08091E80080FFF8CF8091E3
:100E1000E8008E778093E80008952091E4003091F7
:100E2000E50095E64091EC00842F817040FF22C0E0
:100E30008091E80080FD1CC08091CA01882391F058
:100E4000853091F08091EB0085FD10C04091E40069
:100E50005091E5004217530729F39A01915011F779
:100E600084E0089582E0089583E0089581E0089584
:100E700080E008954091E80042FFDECF089556D00B
:100E800058D0E0EEF0E0808181608083E8EDF0E012
:100E900080818F77808319BCE3E6F0E080818160F8
:100EA00080831092C901089541D043D08091D80029
:100EB0008F778093D8008091D80080688093D80085
:100EC0008091D8008F7D8093D80084E089BD86E032
:100ED00089BD09B400FEFDCF1092CA011092C6016F
:100EE0001092C8011092C70142E060E080E041DF4B
:100EF0008091E1008E7F8093E1008091E20081602B
:100F00008093E2008091E20088608093E20080910B
:100F1000E0008E7F8093E0000895E3E6F0E08081BA
:100F20008E7F808381E08093C901BECF1092E20062
:100F300008951092E10008951F920F920FB60F923C
:100F400011242F933F934F935F936F937F938F93CE
:100F50009F93AF93BF93EF93FF938091E10082FF44
:100F60000AC08091E20082FF06C08091E1008B7F81
:100F70008093E100DAD18091E10080FF17C0809179
:100F8000E20080FF13C08091E2008E7F8093E20038
:100F90008091E20080618093E2008091D8008062BD
:100FA0008093D80019BC1092CA01C9D98091E10080
:100FB00084FF2FC08091E20084FF2BC084E089BDB4
:100FC00086E089BD09B400FEFDCF8091D8008F7DF9
:100FD0008093D8008091E1008F7E8093E100809122
:100FE000E2008F7E8093E2008091E2008160809336
:100FF000E2008091C601882311F084E007C080914F
:10100000E30087FD02C081E001C083E08093CA0154
:1010100095D98091E10083FF22C08091E20083FF97
:101020001EC08091E100877F8093E10082E0809381
:10103000CA011092C6018091E1008E7F8093E10089
:101040008091E2008E7F8093E2008091E2008061D7
:101050008093E20042E060E080E08BDE66D1FF91A9
:10106000EF91BF91AF919F918F917F916F915F9120
:101070004F913F912F910F900FBE0F901F90189599
:101080001F93CF93DF93CDB7DEB7AB970FB6F8942E
:10109000DEBF0FBECDBFEBECF1E088E08E0F90918C
:1010A000F10091938E13FBCF57D98091E80083FF15
:1010B00024C18091CB019091CC01492F50E04A305E
:1010C000510508F01AC1FA01E65CFF4F49C18038AA
:1010D00081F0823809F011C18091CF018F70809327
:1010E000E9008091EB0085FB882780F91092E900E8
:1010F00006C08091C7019091C801911182609091C2
:10110000E800977F9093E8008093F1001092F1003F
:10111000D1C0282F2D7F09F0F0C0882319F082302C
:1011200061F0EBC08091CD01813009F0E6C09330D1
:1011300009F080E08093C8012DC08091CD0181111C
:1011400029C08091CF018F7009F4D7C08093E90046
:101150009091EB0090FF1EC09091CC01933021F450
:101160008091EB00806214C09091EB0090619093AD
:10117000EB0021E030E0A90102C0440F551F8A9521
:10118000E2F74093EA001092EA008091EB00886059
:101190008093EB001092E9008091E800877F8DC07A
:1011A0008111ABC01091CD011F778091E300807851
:1011B000812B8093E3008091E800877F8093E80093
:1011C0000DDE8091E80080FFFCCF8091E300806815
:1011D0008093E300111102C082E001C083E080939C
:1011E000CA018BC08058823008F087C08091CD0141
:1011F0009091CE018C3D53E0950769F583E08A8399
:101200008AE289834FB7F894DE01139620E03EE02E
:1012100051E2E32FF0E050935700E49120FF03C028
:10122000E295EF703F5FEF708E2F90E0EA3010F0A4
:10123000C79601C0C0968D939D932F5F243149F7C7
:101240004FBF8091E800877F8093E8006AE270E0FA
:10125000CE0101961DC09E01255D3F4FAE014F5F3F
:101260005F4F6091CF017AD9BC01009709F445C066
:101270008091E800877F8093E8002BA589819A817F
:10128000211102C0ACDC05C0213011F400DD01C029
:1012900010DC8091E8008B778093E8002EC08038C6
:1012A00061F58091E800877F8093E8008091C60116
:1012B0008093F1008091E8008E778093E8008EDDC6
:1012C0001CC081111AC09091CD019230B0F4809170
:1012D000E800877F8093E8009093C6017FDD8091CE
:1012E000C601811106C08091E30087FD02C081E044
:1012F00001C084E08093CA0123D88091E80083FF75
:101300000AC08091E800877F8093E8008091EB001D
:1013100080628093EB00AB960FB6F894DEBF0FBEF1
:10132000CDBFDF91CF911F9108950895CF93809104
:10133000CA01882399F0C091E900CF709091EC0028
:10134000892F817090FD80E8C82B1092E900809170
:10135000E80083FD95DECF70C093E900CF9108953A
:10136000EE0FFF1F0590F491E02D0994DC01CB01F5
:10137000FC01F999FECF06C0F2BDE1BDF89A3196A5
:1013800000B40D9241505040B8F70895F999FECF3E
:1013900092BD81BDF89A992780B50895262FF999B5
:1013A000FECF92BD81BDF89A019700B4021639F0C4
:1013B0001FBA20BD0FB6F894FA9AF99A0FBE089595
:1013C000DC01CB0102C02D9105D041505040D8F72F
:1013D0000895262FF999FECF1FBA92BD81BD20BD79
:1013E0000FB6F894FA9AF99A0FBE01960895F894F8
:0213F000FFCF2D
:1013F20020030000000000000000000000000000C8
:1014020000000000000000000000000000000000DA
:101412001201100100000008FAFAF30000000102B4
:1014220003010000103F0000000000000000000067
:1014320000000000000000000000000000000000AA
:10144200000000000000000000000000000000009A
:10145200000000000000000000000000000000008A
:101462000000000000000000103F0000000000002B
:10147200000000000000000000000000000000006A
:10148200000000000000000000000000000000005A
:10149200000000000000000000000000000000004A
:0A14A2000000000000000000000040
:00000001FF
