:100000000C948C000C94AD000C94AD000C94AD00DD
:100010000C94AD000C94AD000C94AD000C94AD00AC
:100020000C94AD000C94AD000C94AD000C94AD009C
:100030000C94AD000C94AD000C94AD000C94AD008C
:100040000C94AD000C948D0F0C94AD000C94AD008D
:100050000C94AD000C9483020C94AD000C94AD0094
:100060000C94AD000C9458010C94E9000C94AD0074
:100070000C94AD000C94C20E0C94AD000C94AD0029
:100080000C9466050C94AD000C94AD000C94AD007E
:100090000C94AD000C94AD000C94AD000C94AD002C
:1000A0000C94AD000C94AD000C94AD000C94AD001C
:1000B0000C94AD000C94AD000C94AD000C94AD000C
:1000C0000C94AD000C94AD000C94AD000C94AD00FC
:1000D0000C94AD000C94AD000C94AD000C94AD00EC
:1000E0000C94AD00919000003C0013000000000053
:1000F00000000000000000000000000000008185FA
:10010000808429281E22041607001F20214D26273F
:10011000A4A5A6A7A8A9AAAB11241FBECFEFD1E220
:10012000DEBFCDBF00E00CBF12E0A0E0B2E0E6EF22
:10013000FBE200E00BBF02C007900D92A83EB107A2
:10014000D9F714E0A8EEB2E001C01D92AB34B107BC
:10015000E1F70E9464120C94F9150C94000083E0FE
:1001600090E09093C5008093C400E2ECF0E08081C1
:1001700086638083E1ECF0E080818C698083089560
:10018000CF93DF93EC01009721F00E94F20FC80F8C
:10019000D91F83B7816083BF889583B78E7F83BF64
:1001A000209731F00E94F20F8C1B9D0B97FDF1CF31
:1001B000DF91CF91089584E492E00C94720F84E46F
:1001C00092E00E94870FE1ECF0E080818062808302
:1001D00008951F920F920FB60F9211240BB60F9233
:1001E0002F933F934F935F936F937F938F939F933F
:1001F000AF93BF93EF93FF938091ED02811124C0E1
:1002000084E492E00E945A0F9093EC028093EB02F8
:10021000009731F48091C1008F7D8093C1002DC083
:10022000FC01808190914602891728F084E492E0D5
:100230000E946C0F22C09091C10091609093C10008
:100240008F5F8093ED0205C08091C1008E7F809307
:10025000C100E091EB02F091EC02CF010196909386
:10026000EC028093EB0280818093C6008091ED02C6
:1002700081508093ED028823C9F2FF91EF91BF91E5
:10028000AF919F918F917F916F915F914F913F912E
:100290002F910F900BBE0F900FBE0F901F901895CF
:1002A00080E092E00C945A0F80E092E00C946C0F86
:1002B0001F920F920FB60F9211240BB60F922F932D
:1002C0003F934F935F936F937F938F939F93AF93DE
:1002D000BF93CF93EF93FF938091C0009091C100A3
:1002E000C091C6008C7119F01092EA0233C0892FB8
:1002F000827091FD1092EA029091EA02911114C06D
:10030000882341F180910202C81720F580E092E035
:100310000E94720F9093E9028093E802892BD1F03A
:1003200081E08C0F8093EA02E091E802F091E9020B
:10033000CF0101969093E9028093E802C0838091F7
:10034000EA0281508093EA02811104C080E092E0C9
:100350000E94870FFF91EF91CF91BF91AF919F9135
:100360008F917F916F915F914F913F912F910F905E
:100370000BBE0F900FBE0F901F9018951098089A03
:100380001198099A12980A9A13980B9A14980C9A31
:1003900015980D9A16980E9A17980F9A47983F9AA3
:1003A00046983E9A45983D9A44983C9A43983B9A81
:1003B00042983A9A4198399A4098389A5F98579A51
:1003C000A2989A9AA198999AA098989AABE0B1E0CD
:1003D0008C918F778C93EAE0F1E080818068808354
:1003E0008C918F7B8C938081806480838C918F7DB6
:1003F0008C938081806280838C918F7E8C938081AE
:10040000806180838C91877F8C93808188608083DA
:100410008C918B7F8C938081846080838C918D7F85
:100420008C938081826080838C918E7F8C9380817D
:10043000816080832B98239A2A98229A2998219A5E
:100440002898209A81E387BD82E084BD93E095BD22
:1004500080936E0016BC0895CF93DF93FC018081DA
:10046000803471F5EF01219680E090E0499120E021
:1004700030E0D901A80FB91F542F5170AA0FBB1F2C
:10048000AE5ABC4F5C9346952F5F3F4F28303105E5
:1004900081F708968032910549F78581883020F4EC
:1004A000811103C081E001C087E020E8829FC00184
:1004B000112490938902809388021092110320C026
:1004C0008091110384302CF08F5F8370809311032F
:1004D00017C098E0890290011124AF01485F5F4F77
:1004E0002E1B3F0BD901AE0FBF1F9191AA0FBB1F4F
:1004F000AE5ABC4F11969C93E417F50799F7E4CFD9
:10050000DF91CF9108951F920F920FB60F92112491
:100510000BB60F922F933F934F935F936F937F93FD
:100520008F939F93AF93BF93EF93FF9380911003AB
:1005300081508093100387FD0EC02091EE0230E0C1
:1005400080911003992787FD9095821793070CF0EF
:1005500062C0109A61C080E38093100320918802EA
:100560003091890280910E0390910F03280F391F5B
:1005700030930F0320930E03832F99274FEF50E002
:10058000481B590B61E3649FF001659FF00D112436
:100590007F2F689FF001699FF00D11246F2FEEEE01
:1005A000F2E087FDCA01A1E3A89FA001A99F500D19
:1005B0001124CA01880F892F881F990B9195982FB4
:1005C00040E050E0DA01AA0FBB1FAE5ABC4F8C913D
:1005D0008823C9F011968C91823358F0813811F438
:1005E000908312C0823839F437FD02C080E001C028
:1005F00081E3808309C0833811F4708305C0843897
:1006000011F4608301C010824F5F5F4F319640321A
:100610005105C1F692CF10982091EF0230E0809101
:100620001003992787FD90958217930714F4119A68
:1006300001C011982091F00230E0809110039927B9
:1006400087FD90958217930714F4129A01C01298AF
:100650002091F10230E080911003992787FD909559
:100660008217930714F4139A01C013982091F20291
:1006700030E080911003992787FD909582179307AA
:1006800014F4149A01C014982091F30230E0809180
:100690001003992787FD90958217930714F4159AF4
:1006A00001C015982091F40230E080911003992741
:1006B00087FD90958217930714F4169A01C0169837
:1006C0002091F50230E080911003992787FD9095E5
:1006D0008217930714F4179A01C017982091F60215
:1006E00030E080911003992787FD9095821793073A
:1006F00014F4479A01C047982091F70230E08091A6
:100700001003992787FD90958217930714F4469A52
:1007100001C046982091F80230E08091100399279B
:1007200087FD90958217930714F4459A01C0459868
:100730002091F90230E080911003992787FD909570
:100740008217930714F4449A01C044982091FA0246
:1007500030E080911003992787FD909582179307C9
:1007600014F4439A01C043982091FB0230E0809139
:100770001003992787FD90958217930714F4429AE6
:1007800001C042982091FC0230E08091100399272B
:1007900087FD90958217930714F4419A01C0419800
:1007A0002091FD0230E080911003992787FD9095FC
:1007B0008217930714F4409A01C040982091FE02DA
:1007C00030E080911003992787FD90958217930759
:1007D00014F45F9A01C05F982091FF0230E080918D
:1007E0001003992787FD90958217930714F4A29A16
:1007F00001C0A2982091000330E080911003992756
:1008000087FD90958217930714F4A19A01C0A198CF
:100810002091010330E080911003992787FD909586
:100820008217930714F4A09A01C0A09820910203A4
:1008300030E080911003992787FD909582179307E8
:1008400024F480910B01806803C080910B018F77A5
:1008500080930B012091030330E0809110039927CE
:1008600087FD90958217930724F480910B01806493
:1008700003C080910B018F7B80930B0120910403B7
:1008800030E080911003992787FD90958217930798
:1008900024F480910B01806203C080910B018F7D55
:1008A00080930B012091050330E08091100399277C
:1008B00087FD90958217930724F480910B01806146
:1008C00003C080910B018F7E80930B012091060362
:1008D00030E080911003992787FD90958217930748
:1008E00024F480910B01886003C080910B01877F05
:1008F00080930B012091070330E08091100399272A
:1009000087FD90958217930724F480910B018460F2
:1009100003C080910B018B7F80930B012091080312
:1009200030E080911003992787FD909582179307F7
:1009300024F480910B01826003C080910B018D7FB4
:1009400080930B012091090330E0809110039927D7
:1009500087FD90958217930724F480910B018160A5
:1009600003C080910B018E7F80930B0120910A03BD
:1009700030E080911003992787FD909582179307A7
:1009800014F42B9A01C02B9820910B0330E0809136
:100990001003992787FD90958217930714F42A9ADC
:1009A00001C02A9820910C0330E080911003992710
:1009B00087FD90958217930714F4299A01C029980E
:1009C00020910D0330E080911003992787FD9095C9
:1009D0008217930714F4289A01C02898FF91EF9189
:1009E000BF91AF919F918F917F916F915F914F9147
:1009F0003F912F910F900BBE0F900FBE0F901F9045
:100A00001895E82F80912903882331F0EA3158F4B2
:100A1000F0E0EC51FF4F05C0EA3130F4F0E0E25075
:100A2000FF4F8491089580E008950E94010590E7AA
:100A3000980F933020F481E080932603089584502A
:100A4000843820F481E080932703089581E0809327
:100A5000190308958A3170F5E82FF0E0E65DFC4F48
:100A60009081392F30789F77662361F0963010F5AA
:100A7000953029F4311103C030E821E001C020E0B5
:100A80009F5F0CC09923B1F0913031F421E0311116
:100A900001C020E030E001C020E09150932B908312
:100AA000222341F08F3021F481E0809328030895C0
:100AB0000C9415050895F894E82FF0E0EE0FFF1F51
:100AC000E65EFC4F80819181789408951F920F9289
:100AD0000FB60F9211248F939F93AF93BF93809182
:100AE000B2039091B303A091B403B091B503019602
:100AF000A11DB11D8093B2039093B303A093B403DF
:100B0000B093B503BF91AF919F918F910F900FBE9E
:100B10000F901F901895F8946091B2037091B303F1
:100B20008091B4039091B50378940895CF92DF92A9
:100B3000EF92FF920F931F93CF93DF938C01EB0102
:100B4000FC012081318142815381688179818A81D0
:100B50009B810E94B1120E942A156B017C01F80151
:100B600024813581468157816C817D818E819F8171
:100B70000E94B1120E942A159B01AC01C701B60167
:100B80000E94B212DF91CF911F910F91FF90EF90D1
:100B9000DF90CF900C94EC14EF92FF920F931F9381
:100BA000CF93DF93EC01488359836A837B830C8363
:100BB0001D832E833F83B7010E949605688779873E
:100BC0008A879B87DF91CF911F910F91FF90EF90C4
:100BD0000895FC01108A118A128A138A14861586D8
:100BE00016861786158A148A0895CF92DF92EF929F
:100BF000FF920F931F93CF93DF93EC01680179016C
:100C00009A01AB016C857D858E859F850E94B2120D
:100C10006C877D878E879F87A70196016889798970
:100C20008A899B890E94B212688B798B8A8B9B8BF5
:100C30008C899D8901969D8B8C8BDF91CF911F9123
:100C40000F91FF90EF90DF90CF900895CF93DF93B7
:100C5000CDB7DEB76A8D7B8D882777FD8095982F7D
:100C60000E94B5139B01AC016A897B898C899D899F
:100C70000E941A13DF91CF910895CF93DF93CDB7E0
:100C8000DEB76A8D7B8D882777FD8095982F0E942F
:100C9000B5139B01AC016E897F89888D998D0E9467
:100CA0001A13DF91CF9108951092AE031092AF0303
:100CB0001092B0031092B1031092A2031092A303FA
:100CC0001092A4031092A5030E948B056093B803B1
:100CD0007093B9038093BA039093BB0310929D0362
:100CE00010929C03109293031092920360E088E3A9
:100CF0000E942411811101C0FFCF1092BC031092F9
:100D0000BD031092BE031092BF03109234041092E0
:100D1000350410923604109237040E945E100E942F
:100D20008B056093C0037093C1038093C2039093BB
:100D3000C3030E948B056093A6037093A70380935F
:100D4000A8039093A903089520E030E040E855E41B
:100D50000E9465140E94C8140E9482139B012C5E9D
:100D60003F4F2932310540F4220F331FF901E2577A
:100D7000FD4F808191810895CB0108952F923F927C
:100D80004F925F926F927F928F929F92AF92BF929B
:100D9000CF92DF92EF92FF920F931F93CF93DF9347
:100DA000CDB7DEB766970FB6F894DEBF0FBECDBFE6
:100DB0001C014090AA035090AB036090AC0370906C
:100DC000AD0380919E0390919F03A091A003B091E9
:100DD000A10389839A83AB83BC838091340490916F
:100DE0003504A0913604B09137048D839E83AF8380
:100DF000B8878090BC039090BD03A090BE03B090D4
:100E0000BF031092BC031092BD031092BE03109258
:100E1000BF031092340410923504109236041092DD
:100E200037040E948B05C090C003D090C103E090AE
:100E3000C203F090C3036C197D098E099F090E94BB
:100E4000B31320E030E04AE754E40E941A136B0128
:100E50007C010E948B056093C0037093C103809353
:100E6000C2039093C303A70196016D817E818F8198
:100E700098850E941A136D877E878F87988BA701AC
:100E80009601C501B4010E941A13698B7A8B8B8B72
:100E90009C8B809192039091930326E1D22ED89E51
:100EA0009001D99E300D1124D901AC53BC4F7D0166
:100EB00009811A812B813C81B301A201CD010E94DD
:100EC000F5050E948B058090B8039090B903A0901F
:100ED000BA03B090BB03DC01CB0188199909AA09B8
:100EE000BB09893E9340A105B10508F4B8C18091C2
:100EF000920390919303019665E070E00E9487153C
:100F00009093930380939203D89E9001D99E300DC5
:100F10001124C9018C539C4F9E8B8D8B09811A81A2
:100F20002B813C81B301A2010E94CC0580919C03DE
:100F300090919D03853091050CF473C12AE037ED43
:100F400043E25CE36091CC037091CD038091CE03CA
:100F50009091CF030E94161387FF68C12AE037EDF6
:100F600043E25CE36091E2037091E3038091E40368
:100F70009091E5030E94161387FF58C12AE037EDD0
:100F800043E25CE36091F8037091F9038091FA0306
:100F90009091FB030E94161387FF48C12AE037EDAA
:100FA00043E25CE360910E0470910F0480911004A1
:100FB000909111040E94161387FF38C12AE037ED83
:100FC00043E25CE36091240470912504809126043F
:100FD000909127040E94161387FF28C16091D803BF
:100FE0007091D903882777FD8095982F0E94B513BB
:100FF0006B017C016091EE037091EF03882777FD10
:101000008095982F0E94B51369837A838B839C8384
:101010006091040470910504882777FD8095982FCE
:101020000E94B5136D837E838F83988760911A0425
:1010300070911B04882777FD8095982F0E94B51327
:1010400069877A878B879C8760913004709131041F
:10105000882777FD8095982F0E94B5132B013C01BE
:10106000A70196016091D0037091D1038091D203C2
:101070009091D3030E941A134B015C0129813A819C
:101080004B815C816091E6037091E7038091E803F6
:101090009091E9030E941A139B01AC01C501B401B0
:1010A0000E94B2124B015C012D813E814F81588517
:1010B0006091FC037091FD038091FE039091FF030A
:1010C0000E941A139B01AC01C501B4010E94B21227
:1010D0004B015C0129853A854B855C856091120442
:1010E0007091130480911404909115040E941A13B6
:1010F0009B01AC01C501B4010E94B2124B015C011D
:10110000A3019201609128047091290480912A041E
:1011100090912B040E941A139B01AC01C501B401EC
:101120000E94B21220E030E040EA50E40E941A131C
:101130006093A2037093A3038093A4039093A503E9
:10114000A70196016091D4037091D5038091D603D5
:101150009091D7030E941A136B017C0129813A8177
:101160004B815C816091EA037091EB038091EC0309
:101170009091ED030E941A139B01AC01C701B601C7
:101180000E94B2126B017C012D813E814F815885F6
:101190006091000470910104809102049091030415
:1011A0000E941A139B01AC01C701B6010E94B21242
:1011B0006B017C0129853A854B855C85609116041D
:1011C0007091170480911804909119040E941A13C9
:1011D0009B01AC01C701B6010E94B2126B017C01F8
:1011E000A301920160912C0470912D0480912E0432
:1011F00090912F040E941A139B01AC01C701B60104
:101200000E94B21220E030E040EA50E40E941A133B
:101210006093AE037093AF038093B0039093B103D8
:1012200005C0019690939D0380939C03AD89BE8970
:1012300050961D921D921D921C925397FD0114868B
:10124000158616861786158A148A0E948B05609368
:10125000B8037093B9038093BA039093BB036D8571
:101260007E858F8598890E94A406D1018D939C93D9
:1012700069897A898B899C890E94A406F1019383EC
:10128000828366960FB6F894DEBF0FBECDBFDF91A6
:10129000CF911F910F91FF90EF90DF90CF90BF9073
:1012A000AF909F908F907F906F905F904F903F9006
:1012B0002F9008954F925F926F927F928F929F929C
:1012C000AF92BF92CF92DF92EF92FF92CF93DF93D4
:1012D000CDB7DEB728970FB6F894DEBF0FBECDBFEF
:1012E0000E945E10C0904304D0904404E0904504F6
:1012F000F090460480913E0490913F04A0914004F8
:10130000B091410489839A83AB83BC838091470465
:1013100090914804A0914904B0914A048D839E8322
:10132000AF83B8870E948B058090A6039090A70397
:10133000A090A803B090A903681979098A099B09AC
:101340000E94B31320E030E04AE754E40E941A13ED
:101350004B015C010E948B056093A6037093A70369
:101360008093A8039093A9032091AA033091AB0323
:101370004091AC035091AD03C701B6010E94B21277
:101380002B013C016091A2037091A3038091A403FF
:101390009091A5039B01AC010E94B2129B01AC018C
:1013A000C301B2010E94B112A50194010E9465140B
:1013B00020E030E040E05FE30E9465149B01AC0157
:1013C0006091340470913504809136049091370413
:1013D0000E94B212609334047093350480933604F3
:1013E0009093370420919E0330919F034091A00376
:1013F0005091A10369817A818B819C810E94B212F4
:101400002B013C016091AE037091AF038091B0035A
:101410009091B1039B01AC010E94B2129B01AC01FF
:10142000C301B2010E94B112A50194010E9465148A
:1014300020E030E040E05FE30E9465149B01AC01D6
:101440006091BC037091BD038091BE039091BF0376
:101450000E94B2126093BC037093BD038093BE03DD
:101460009093BF03C092AA03D092AB03E092AC0367
:10147000F092AD0389819A81AB81BC8180939E03F8
:1014800090939F03A093A003B093A1038D819E81AD
:10149000AF81B8858093980390939903A0939A03A2
:1014A000B0939B0328960FB6F894DEBF0FBECDBF56
:1014B000DF91CF91FF90EF90DF90CF90BF90AF90F2
:1014C0009F908F907F906F905F904F9008954F9274
:1014D0005F926F927F92AF92BF92CF92DF92EF9224
:1014E000FF920F931F93CF93DF9300D01F92CDB73E
:1014F000DEB70E945A091C821B821A821982CE0111
:1015000001960E94BE06A980BA800B811C81A1149D
:1015100020EFB2064CF081E0A81680E1B8063CF05E
:10152000A12C40E1B42E03C0A12C50EFB52E011523
:1015300020EF12073CF0013080E118072CF000E0AA
:1015400010E102C000E010EF80E00E945B0581E046
:101550000E945B0582E00E945B059C01AEEFB0E05B
:101560000E945D15DC01CB019E5FAF4FBF4F4AE08B
:10157000B595A795979587954A95D1F751E8C52ECA
:10158000C80E83E00E945B059C01AEEFB0E00E94B4
:101590005D15DC01CB019E5FAF4FBF4F6AE0B59593
:1015A000A795979587956A95D1F771E8D72ED80EAC
:1015B00084E00E945B059C01AEEFB0E00E945D15E7
:1015C000DC01CB019E5FAF4FBF4FEAE0B595A79519
:1015D00097958795EA95D1F7F1E8EF2EE80E85E02B
:1015E0000E945B059C01AEEFB0E00E945D15DC013E
:1015F000CB019E5FAF4FBF4F2AE0B595A79597955A
:1016000087952A95D1F731E8F32EF80E0E948B05C5
:10161000409038045090390460903A0470903B0434
:10162000DC01CB0184199509A609B70981319742DC
:10163000A105B10508F44BC0C501B7FE04C0882759
:1016400099278A199B098536910554F4C80117FF1B
:1016500004C088279927801B910B85369105BCF122
:10166000C501AA2797FDA095BA2F9C01AD01305F57
:101670004F4F5F4FAFEFB0E00E946C15DC01CB0124
:101680002DE0B595A795979587952A95D1F7E0E830
:10169000E80F22273327201B310BC901AA2797FD0A
:1016A000A095BA2F9C01AD01305F4F4F5F4FAFEF58
:1016B000B0E00E946C15DC01CB013DE0B595A7952B
:1016C000979587953A95D1F760E8680F02C060E07A
:1016D000E0E087E080934403E09345036093460392
:1016E000C0924703D0924803E0924903F0924A0324
:1016F00010924B0388E00F900F900F900F90DF91A6
:10170000CF911F910F91FF90EF90DF90CF90BF90FE
:10171000AF907F906F905F904F9008954F925F923F
:101720006F927F92AF92BF92CF92DF92EF92FF9231
:101730000F931F93CF93DF93CDB7DEB729013A0103
:101740009B01AC0124193509460957098A899B89EF
:10175000AC89BD89BC01CD016A197B098C099D0941
:101760000E947715A80197012419350946095709E0
:101770000E949B15822F8A0DDF91CF911F910F91AF
:10178000FF90EF90DF90CF90BF90AF907F906F90E1
:101790005F904F900895749A6C98759A6D98A59A79
:1017A0009D98739A6B9880910201886080930201E2
:1017B00080910101877F8093010180910201806106
:1017C00080930201809101018F7E809301018091BD
:1017D0000201806280930201809101018F7D8093DC
:1017E00001018091020180648093020180910101D6
:1017F0008F7B809301012C9A24982D9A25982E9AFC
:1018000026982F9A27988091050182608093050180
:10181000809104018D7F8093040180910501816096
:1018200080930501809104018E7F80930401809153
:101830000201826080930201809101018D7F80937B
:101840000101809102018160809302018091010178
:101850008E7F809301018E9A86988F9A87988091C7
:101860000801816080930801809107018E7F809339
:10187000070180910801826080930801809107012F
:101880008D7F809307018091080184608093080117
:10189000809107018B7F8093070180910801886008
:1018A0008093080180910701877F809307018091D1
:1018B0000801806180930801809107018F7E8093E9
:1018C00007018091080180628093080180910701DF
:1018D0008F7D8093070180910801806480930801C7
:1018E000809107018F7B80930701809108018068B8
:1018F00080930801809107018F7780930701889872
:101900008098899881988A9882988B9883988C98E7
:1019100084988D98859880E480937C008FEC8093E8
:101920007A00809191008A608093910087E0809393
:10193000990080ED8093980080917100826080937F
:101940007100789460E088E30E942411811101C045
:10195000FFCF2FEF84E39CE0215080409040E1F7DF
:1019600000C000000E945E100E9454060E948B0579
:10197000609338047093390480933A0490933B0445
:101980000895CF93809128038111D4C06CB1C1E038
:10199000629561706C270E942A056CB165FB662711
:1019A00060F96C2781E00E942A0562B365FB662717
:1019B00060F96C2782E00E942A056CB163FB662700
:1019C00060F96C2783E00E942A056091000163FBA7
:1019D000662760F96C2784E00E942A056091000167
:1019E000629561706C2785E00E942A056091000174
:1019F00065FB662760F96C2786E00E942A056091E6
:101A0000000166FB662760F96C2787E00E942A05C3
:101A100063B1629561706C2788E00E942A0563B10A
:101A200065FB662760F96C2789E00E942A0563B18F
:101A300066FB662760F96C278AE00E942A0563B17D
:101A40006095661F6627661F8BE00E942A056091DD
:101A50000301669561706C278CE00E942A056091F5
:101A6000030161706C278DE00E942A0560910001DE
:101A7000669561706C278EE00E942A0560910001D6
:101A800061706C278FE00E942A056FB166FB6627A4
:101A900060F96C2780E10E942A056FB16095661F8E
:101AA0006627661F81E10E942A0560910601617028
:101AB0006C2782E10E942A0560910601669561709B
:101AC0006C2783E10E942A056091060162FB66276C
:101AD00060F96C2784E10E942A056091060163FB8E
:101AE000662760F96C2785E10E942A05609106014E
:101AF000629561706C2786E10E942A05609106015B
:101B000065FB662760F96C2787E10E942A056091D2
:101B1000060166FB662760F96C2788E10E942A05AA
:101B2000609106016095661F6627661F89E1CF9167
:101B30000C942A05CF9108958F929F92BF92CF92D5
:101B4000DF92EF92FF920F931F93CF93DF931F9239
:101B5000CDB7DEB7009711F480E007C14C010E94B9
:101B6000F20F2091170330911803AC01421B530B65
:101B700057FDF2CF029690931803809317030E94AB
:101B8000C10C80912803813039F090912803809115
:101B90002703923079F528C082E0809328035AE227
:101BA000E52E53E0F52E00E010E00F30110599F01E
:101BB000D7018C91882379F0F801E250FF4F84918E
:101BC000F801EC51FF4FE4918E1729F0802F0E940D
:101BD0001505F70110820F5F1F4FFFEFEF1AFF0A85
:101BE0000A31110511F7D1CF90912603911102C04E
:101BF0008823D1F0882319F11092270387E0E5E4C8
:101C0000F3E0DF011D928A95E9F781E080934403B8
:101C10000AE213E092E0D12C2DE3C22E30E4B32E81
:101C2000EE24E394F12C3BC080911903811107C08D
:101C30001092280380913903807880932903809142
:101C40002603882361F0109226038AE2E82E83E0BF
:101C5000F82E00E010E0CC24C394D12C65C0809114
:101C600016038F3F39F090911903992319F08F5F74
:101C700080931603809116038F3F19F08F5F809336
:101C8000160380911603882309F466CF1092160379
:101C90001092190387E090E00E94670A61C0F80182
:101CA00081918F0187FF3AC08D2D99830E94010594
:101CB0002CEF280F9981243888F520E8280F283048
:101CC00060F4822F970101C0220F8A95EAF7809174
:101CD0004503282B2093450321C09830F8F4292F81
:101CE00030E0803761F08137A1F480914503826054
:101CF00080934503F901EC5BFC4FB0820EC08091EC
:101D00004503846080934503F901EC5BFC4FC0827E
:101D100004C0F901EC5BFC4F80839F5FD394FAE130
:101D2000DF12BDCF88E01CC0D7018D917D0187FFF8
:101D30000FC0812F0E94010590E7980F933040F467
:101D4000F601092E02C0EE0FFF1F0A94E2F70E2BD8
:101D50001F5F1A3149F782E08093440300934503E3
:101D600024E433E0D4012D933C930F90DF91CF9185
:101D70001F910F91FF90EF90DF90CF90BF909F90B9
:101D80008F9008951F920F920FB60F9211240BB6E9
:101D90000F922F933F934F935F938F939F93EF9364
:101DA000FF932091140330911503409178005091D6
:101DB0007900F901EE0FFF1FE65EFC4F518340836F
:101DC000A9014150510957FD05C050931503409397
:101DD000140306C02B5F3F4F309315032093140369
:101DE000E0911403F0911503E052FD4F30812091F2
:101DF0007C00207E20937C0020917C00432F4F713B
:101E0000242B20937C0020917B00277F20937B0054
:101E100020917B0035FB882780F990E033E0880F24
:101E2000991F3A95E1F7822B80937B0080917A008D
:101E3000806480937A00FF91EF919F918F915F91E1
:101E40004F913F912F910F900BBE0F900FBE0F90AF
:101E50001F901895FC01838191812081921B282F6E
:101E6000291B2F3F61F091818923DF01A80FB11D4C
:101E700014966C9381818F5F818380E008958FEF4A
:101E80000895FC0191818081981791F06115710589
:101E900079F0908183818923DF01A80FB11D149609
:101EA0008C91DB018C9380818F5F808380E008952B
:101EB0008FEF0895FC0191818081981751F0208166
:101EC0009381292330E02C5F3F4FCF01820F931F76
:101ED000089580E090E00895FC0190818281890F4F
:101EE00080830895FC01238181819081891B922F39
:101EF000981B9F3F49F08181282330E02C5F3F4FA2
:101F0000CF01820F931F089580E090E00895FC01B7
:101F100091818281890F818308951F920F920FB65C
:101F20000F9211242F933F938F939F9320918400BE
:101F30003091850080915003909151032817390703
:101F400048F480914E0390914F03019690934F0374
:101F500080934E03309351032093500380914C03A0
:101F600090914D03019690934D0380934C03809183
:101F70008800909189008058914C909389008093BB
:101F800088009F918F913F912F910F900FBE0F90DE
:101F90001F9018950F931F934FB7F89420915003FB
:101FA0003091510380914E0390914F034FBF609148
:101FB0008400709185006217730708F40196A0E011
:101FC000B0E0DC0199278827AB0160E070E08C016C
:101FD0009D01042B152B262B372BC901B8011F910E
:101FE0000F9108952FB7F89480914C0390914D0371
:101FF0002FBF0895CF93DF931F92CDB7DEB76983CC
:1020000021E030E0AE014F5F5F4F682F80914204C6
:102010000E94EA110F90DF91CF910895CF93DF9343
:102020001F92CDB7DEB721E030E0AE014F5F5F4FCA
:10203000682F809142040E941E1289810F90DF91C7
:10204000CF910895CF93DF93D82F8AE20E940E108C
:10205000C82F60E08AE20E94FA0F6D2F63708EE055
:102060000E94FA0F6C2F61608AE2DF91CF910C948D
:10207000FA0F8EE00E940E1083700895CF93DF93C5
:10208000C82F8AE20E940E10D82F60E08AE20E94D8
:10209000FA0F6D2F677C88E0C89F90011124622B96
:1020A00061608AE2DF91CF910C94FA0F8AE20E947C
:1020B0000E1086958695869587700895CF92DF924B
:1020C000EF92FF92809142040E949C1181E00E9455
:1020D000C511809142048F5F0E949C110E94D6110D
:1020E0001092B6038093B7030E94D6112091B603D5
:1020F0003091B703282B3595279535952795309343
:10210000B7032093B6030E94D61110923204809335
:1021100033040E94D6112091320430913304282BCD
:1021200035952795359527953093330420933204C0
:102130000E94D61110923C0480933D040E94E0114D
:1021400020913C0430913D04282B359527953595F9
:10215000279530933D0420933C040E94391082302F
:1021600039F0813041F0811109C060E070E108C0B0
:1021700060E074E005C060E078E002C061E070E01B
:1021800080E090E00E94B3136B017C016091B60384
:102190007091B703882777FD8095982F0E94B5131B
:1021A000A70196010E941A1360934304709344049C
:1021B00080934504909346046091320470913304F7
:1021C000882777FD8095982F0E94B513A701960167
:1021D0000E941A1360933E0470933F04809340045E
:1021E0009093410460913C0470913D04882777FDF1
:1021F0008095982F0E94B513A70196010E941A138B
:1022000060934704709348048093490490934A0470
:10221000FF90EF90DF90CF900C9460128AE20E94C2
:102220000E10682F6E7F8AE20E94FA0F8AE20E94E7
:102230000E1080FDF6CF08958AE20E940E10682FDE
:1022400061608AE20C94FA0F1F93CF93DF931F9281
:10225000CDB7DEB7162F89830E94721189818093D2
:1022600042048DE00E940E108A31C9F460E48BE2D2
:102270000E94FA0F8BE20E940E1086FDFBCF0E9497
:102280000E11812F0E94221062E08BE20E94FA0F51
:1022900080E00E943E100E941C1181E001C080E09D
:1022A0000F90DF91CF911F9108950E940E118CE243
:1022B0000E940E108C7F682F62608CE20E94FA0FE1
:1022C0008EE20E940E10682F61608EE20E94FA0F6B
:1022D0008DE20E940E10682F61608DE20E94FA0F5D
:1022E0000C941C11459A449A1092B9008CE080938A
:1022F000B80008951092BC0094EA9093BC009091AD
:10230000BC0097FFFCCF9091B900987F983011F0F6
:1023100081E008958093BB0084E88093BC008091A5
:10232000BC0087FFFCCF8091B900887F883111F015
:10233000803471F780E0089524EA34E844E920937A
:10234000BC009091BC0097FFFCCF9091B900987FA2
:10235000983011F0903199F78093BB003093BC0016
:102360009091BC0097FFFCCF9091B900987F90327C
:1023700011F0983539F44093BC009091BC0094FD65
:10238000FCCFDDCF80E090E008958093BB0084E82F
:102390008093BC008091BC0087FD06C08091B9008D
:1023A000887F8832D9F7F6CF80E0089584EC809357
:1023B000BC008091BC0087FFFCCF8091BB000895DA
:1023C00084E88093BC008091BC0087FFFCCF8091A3
:1023D000BB000895CF92DF92EF92FF920F931F936D
:1023E000CF93DF931F92CDB7DEB77A01890169835E
:1023F0000E949C116981892B11F081E015C0862F04
:102400000E94C51167010E0D1F1DC016D10641F0B7
:10241000F60181916F010E94C5118823B1F3EDCFC0
:1024200084E98093BC0080E00F90DF91CF911F91F1
:102430000F91FF90EF90DF90CF900895CF92DF92B1
:10244000EF92FF920F931F93CF93DF931F92CDB71D
:10245000DEB7D82E7A01890169830E949C116981B7
:10246000892B11F081E022C0862F0E94C5118D2D8D
:1024700081600E949C11892BA9F767010150110905
:10248000C6018E199F098017910730F40E94D6115A
:10249000F60181936F01F4CFE00EF11E0E94E0116E
:1024A000F701808384E98093BC0080E00F90DF9186
:1024B000CF911F910F91FF90EF90DF90CF900895F3
:1024C00084E98093BC000895CF93DF931F921F92FD
:1024D000CDB7DEB780918400909185008058914CF3
:1024E000909389008093880081E08093810082E04E
:1024F00080936F000E94AF000E94BE010E94CB0B30
:1025000083B7817F83BF78940E945001009751F078
:10251000FC012081283019F401960E942C020E94AF
:102520005401F2CF1A821982CE0101960E949C0DAD
:10253000F82E882389F00E94DB008C01009721F39C
:102540004F2D50E069817A8101960E94F015F801C3
:10255000F0820E94DF00D8CF80E090E00E94C000AF
:10256000D3CF5058BB27AA270ED075C166D130F003
:102570006BD120F031F49F3F11F41EF45BC10EF4D7
:10258000E095E7FB51C1E92F77D180F3BA176207D5
:1025900073078407950718F071F49EF58FC10EF448
:1025A000E0950B2EBA2FA02D0B01B90190010C0163
:1025B000CA01A0011124FF27591B99F0593F50F47B
:1025C000503E68F11A16F040A22F232F342F4427D3
:1025D000585FF3CF469537952795A795F0405395CB
:1025E000C9F77EF41F16BA0B620B730B840BBAF09B
:1025F0009150A1F0FF0FBB1F661F771F881FC2F706
:102600000EC0BA0F621F731F841F48F48795779519
:102610006795B795F7959E3F08F0B3CF9395880FD0
:1026200008F09927EE0F979587950895D9D008F46B
:1026300081E008950CD00FC107D140F0FED030F0FA
:1026400021F45F3F19F0F0C0511139C1F3C014D12A
:1026500098F39923C9F35523B1F3951B550BBB2769
:10266000AA2762177307840738F09F5F5F4F220F16
:10267000331F441FAA1FA9F333D00E2E3AF0E0E80F
:1026800030D091505040E695001CCAF729D0FE2F5B
:1026900027D0660F771F881FBB1F261737074807ED
:1026A000AB07B0E809F0BB0B802DBF01FF279358A3
:1026B0005F4F2AF09E3F510568F0B6C000C15F3FF2
:1026C000ECF3983EDCF3869577956795B795F7958B
:1026D0009F5FC9F7880F911D9695879597F9089583
:1026E000E1E0660F771F881FBB1F6217730784071F
:1026F000BA0720F0621B730B840BBA0BEE1F88F72E
:10270000E095089504D06894B111D9C00895BCD063
:1027100088F09F5790F0B92F9927B751A0F0D1F0CA
:10272000660F771F881F991F1AF0BA95C9F712C054
:10273000B13081F0C3D0B1E00895C0C0672F782FC9
:102740008827B85F39F0B93FCCF3869577956795C0
:10275000B395D9F73EF490958095709561957F4F2C
:102760008F4F9F4F0895E89409C097FB3EF49095D2
:102770008095709561957F4F8F4F9F4F9923A9F05A
:10278000F92F96E9BB279395F695879577956795E9
:10279000B795F111F8CFFAF4BB0F11F460FF1BC02D
:1027A0006F5F7F4F8F4F9F4F16C0882311F096E9C0
:1027B00011C0772321F09EE8872F762F05C066236E
:1027C00071F096E8862F70E060E02AF09A95660F27
:1027D000771F881FDAF7880F9695879597F90895E0
:1027E000990F0008550FAA0BE0E8FEEF1616170622
:1027F000E807F907C0F012161306E407F50798F08A
:10280000621B730B840B950B39F40A2661F0232BA2
:10281000242B252B21F408950A2609F4A140A6951E
:102820008FEF811D811D089597F99F6780E870E003
:1028300060E008959FEF80EC089500240A94161636
:10284000170618060906089500240A94121613069E
:10285000140605060895092E0394000C11F488232C
:1028600052F0BB0F40F4BF2B11F460FF04C06F5F48
:102870007F4F8F4F9F4F089557FD9058440F551F1E
:1028800059F05F3F71F04795880F97FB991F61F0F2
:102890009F3F79F087950895121613061406551F69
:1028A000F2CF4695F1DF08C0161617061806991FD5
:1028B000F1CF86957105610508940895E894BB27CA
:1028C00066277727CB0197F908950BD0C4CFB5DFE2
:1028D00028F0BADF18F0952309F0A6CFABCF11246A
:1028E000EECFCADFA0F3959FD1F3950F50E0551FAF
:1028F000629FF001729FBB27F00DB11D639FAA2755
:10290000F00DB11DAA1F649F6627B00DA11D661FA3
:10291000829F2227B00DA11D621F739FB00DA11DC4
:10292000621F839FA00D611D221F749F3327A00D7E
:10293000611D231F849F600D211D822F762F6A2F1A
:1029400011249F5750408AF0E1F088234AF0EE0F9F
:10295000FF1FBB1F661F771F881F91505040A9F7AC
:102960009E3F510570F060CFAACF5F3FECF3983ED9
:10297000DCF3869577956795B795F795E7959F5F13
:10298000C1F7FE2B880F911D9695879597F90895AD
:102990007BDFE0F09E37D8F09639B8F49E3848F4E3
:1029A000672F782F8827985FF9CF86957795679559
:1029B00093959539D0F3B62FB1706B0F711D811DB2
:1029C00020F4879577956795939547C061C077CF39
:1029D00011F40EF42FCF5CC057DFD0F39923D9F355
:1029E000CEF39F57550B87FF61D00024A0E640EA45
:1029F000900180585695979528F4805C660F771F54
:102A0000881F20F026173707480730F4621B730B26
:102A1000840B202931294A2BA69517940794202549
:102A200031254A2758F7660F771F881F20F0261791
:102A30003707480730F4620B730B840B200D311DF0
:102A4000411DA09581F7B901842F9158880F969563
:102A5000879508959B01AC0138CF882371F47723C3
:102A600021F09850872B762F07C0662311F4992701
:102A70000DC09051862B70E060E02AF09A95660FA9
:102A8000771F881FDAF7880F9695879597F908952D
:102A90009F3F31F0915020F4879577956795B795D2
:102AA000880F911D9695879597F9089591505040FC
:102AB000660F771F881FD2F70895A29FB001B39FBA
:102AC000C001A39F700D811D1124911DB29F700D37
:102AD000811D1124911D08950E945D15A59F900DE3
:102AE000B49F900DA49F800D911D11240895DB01CA
:102AF0008F939F930E946C15BF91AF91A29F800D01
:102B0000911DA39F900DB29F900D1124089597FBE6
:102B1000072E16F4009407D077FD09D00E94BA154D
:102B200007FC05D03EF4909581959F4F08957095D0
:102B300061957F4F0895052E97FB1EF400940E9427
:102B4000B21557FD07D00E94CE1507FC03D04EF4F6
:102B50000C94B21550954095309521953F4F4F4FAD
:102B60005F4F089590958095709561957F4F8F4F39
:102B70009F4F0895AA1BBB1B51E107C0AA1FBB1F93
:102B8000A617B70710F0A61BB70B881F991F5A95F9
:102B9000A9F780959095BC01CD010895A1E21A2E68
:102BA000AA1BBB1BFD010DC0AA1FBB1FEE1FFF1FF1
:102BB000A217B307E407F50720F0A21BB30BE40B41
:102BC000F50B661F771F881F991F1A9469F7609588
:102BD0007095809590959B01AC01BD01CF01089542
:102BE000FB01DC0102C001900D9241505040D8F72A
:062BF0000895F894FFCFE8
:102BF6000000103F00000000000000000000000080
:102C060000000000000000000000000000000000BE
:102C160000000000000000000000000000000000AE
:102C2600000000000000000000000000000000009E
:102C3600000000000000103F00000000000000003F
:102C4600000000000000000000000000000000007E
:102C5600000000000000000000000000000000006E
:102C6600000000000000000000000000000000005E
:102C76000000000000000000000100024402EEFF18
:102C8600F0FFF2FFF3FFF5FFF6FFF8FFF9FFFAFF9B
:102C9600FBFFFCFFFDFFFEFFFEFFFFFFFFFF000047
:102CA600000000000000000000000000000000001E
:102CB60001000100020002000300040005000600F6
:102CC600070008000A000B000D000E00100012009D
:082CD6000001020304050500E2
:04000005008004383B
:00000001FF
