:100000000C948C000C94AD000C94AD000C94AD00DD
:100010000C94AD000C94AD000C94AD000C94AD00AC
:100020000C94AD000C94AD000C94AD000C94AD009C
:100030000C94AD000C94AD000C94AD000C94AD008C
:100040000C94AD000C94190F0C94AD000C94AD0001
:100050000C94AD000C9483020C94AD000C94AD0094
:100060000C94AD000C9458010C94E9000C94AD0074
:100070000C94AD000C94670E0C94AD000C94AD0084
:100080000C9466050C94AD000C94AD000C94AD007E
:100090000C94AD000C94AD000C94AD000C94AD002C
:1000A0000C94AD000C94AD000C94AD000C94AD001C
:1000B0000C94AD000C94AD000C94AD000C94AD000C
:1000C0000C94AD000C94AD000C94AD000C94AD00FC
:1000D0000C94AD000C94AD000C94AD000C94AD00EC
:1000E0000C94AD00919000003C0013000000000053
:1000F00000000000000000000000000000008185FA
:10010000808429281E22041607001F20214D26273F
:10011000A4A5A6A7A8A9AAAB11241FBECFEFD1E220
:10012000DEBFCDBF00E00CBF12E0A0E0B2E0EEE029
:10013000FBE200E00BBF02C007900D92A23EB107A8
:10014000D9F714E0A2EEB2E001C01D92AB33B107C3
:10015000E1F70E94F0110C9485150C94000083E0E7
:1001600090E09093C5008093C400E2ECF0E08081C1
:1001700086638083E1ECF0E080818C698083089560
:10018000CF93DF93EC01009721F00E947E0FC80F00
:10019000D91F83B7816083BF889583B78E7F83BF64
:1001A000209731F00E947E0F8C1B9D0B97FDF1CFA5
:1001B000DF91CF91089584E492E00C94FE0E84E4E4
:1001C00092E00E94130FE1ECF0E080818062808376
:1001D00008951F920F920FB60F9211240BB60F9233
:1001E0002F933F934F935F936F937F938F939F933F
:1001F000AF93BF93EF93FF938091E702811124C0E7
:1002000084E492E00E94E60E9093E6028093E50279
:10021000009731F48091C1008F7D8093C1002DC083
:10022000FC01808190914602891728F084E492E0D5
:100230000E94F80E22C09091C10091609093C1007D
:100240008F5F8093E70205C08091C1008E7F80930D
:10025000C100E091E502F091E602CF010196909392
:10026000E6028093E50280818093C6008091E702D8
:1002700081508093E7028823C9F2FF91EF91BF91EB
:10028000AF919F918F917F916F915F914F913F912E
:100290002F910F900BBE0F900FBE0F901F901895CF
:1002A00080E092E00C94E60E80E092E00C94F80E70
:1002B0001F920F920FB60F9211240BB60F922F932D
:1002C0003F934F935F936F937F938F939F93AF93DE
:1002D000BF93CF93EF93FF938091C0009091C100A3
:1002E000C091C6008C7119F01092E40233C0892FBE
:1002F000827091FD1092E4029091E402911114C079
:10030000882341F180910202C81720F580E092E035
:100310000E94FE0E9093E3028093E202892BD1F0BB
:1003200081E08C0F8093E402E091E202F091E3021D
:10033000CF0101969093E3028093E202C083809103
:10034000E40281508093E402811104C080E092E0D5
:100350000E94130FFF91EF91CF91BF91AF919F91A9
:100360008F917F916F915F914F913F912F910F905E
:100370000BBE0F900FBE0F901F9018951098089A03
:100380001198099A12980A9A13980B9A14980C9A31
:1003900015980D9A16980E9A17980F9A47983F9AA3
:1003A00046983E9A45983D9A44983C9A43983B9A81
:1003B00042983A9A4198399A4098389A5F98579A51
:1003C000A2989A9AA198999AA098989AABE0B1E0CD
:1003D0008C918F778C93EAE0F1E080818068808354
:1003E0008C918F7B8C938081806480838C918F7DB6
:1003F0008C938081806280838C918F7E8C938081AE
:10040000806180838C91877F8C93808188608083DA
:100410008C918B7F8C938081846080838C918D7F85
:100420008C938081826080838C918E7F8C9380817D
:10043000816080832B98239A2A98229A2998219A5E
:100440002898209A81E387BD82E084BD93E095BD22
:1004500080936E0016BC0895CF93DF93FC018081DA
:10046000803471F5EF01219680E090E0499120E021
:1004700030E0D901A80FB91F542F5170AA0FBB1F2C
:10048000AE5BBC4F5C9346952F5F3F4F28303105E4
:1004900081F708968032910549F78581883020F4EC
:1004A000811103C081E001C087E020E8829FC00184
:1004B0001124909389028093880210920B0320C02C
:1004C00080910B0384302CF08F5F837080930B033B
:1004D00017C098E0890290011124AF01485F5F4F77
:1004E0002E1B3F0BD901AE0FBF1F9191AA0FBB1F4F
:1004F000AE5BBC4F11969C93E417F50799F7E4CFD8
:10050000DF91CF9108951F920F920FB60F92112491
:100510000BB60F922F933F934F935F936F937F93FD
:100520008F939F93AF93BF93EF93FF9380910A03B1
:10053000815080930A0387FD0EC02091E80230E0CD
:1005400080910A03992787FD9095821793070CF0F5
:1005500062C0109A61C080E380930A0320918802F0
:10056000309189028091080390910903280F391F67
:100570003093090320930803832F99274FEF50E00E
:10058000481B590B61E3649FF001659FF00D112436
:100590007F2F689FF001699FF00D11246F2FE8EE07
:1005A000F2E087FDCA01A1E3A89FA001A99F500D19
:1005B0001124CA01880F892F881F990B9195982FB4
:1005C00040E050E0DA01AA0FBB1FAE5BBC4F8C913C
:1005D0008823C9F011968C91823358F0813811F438
:1005E000908312C0823839F437FD02C080E001C028
:1005F00081E3808309C0833811F4708305C0843897
:1006000011F4608301C010824F5F5F4F319640321A
:100610005105C1F692CF10982091E90230E0809107
:100620000A03992787FD90958217930714F4119A6E
:1006300001C011982091EA0230E080910A039927C5
:1006400087FD90958217930714F4129A01C01298AF
:100650002091EB0230E080910A03992787FD909565
:100660008217930714F4139A01C013982091EC0297
:1006700030E080910A03992787FD909582179307B0
:1006800014F4149A01C014982091ED0230E0809186
:100690000A03992787FD90958217930714F4159AFA
:1006A00001C015982091EE0230E080910A0399274D
:1006B00087FD90958217930714F4169A01C0169837
:1006C0002091EF0230E080910A03992787FD9095F1
:1006D0008217930714F4179A01C017982091F0021B
:1006E00030E080910A03992787FD90958217930740
:1006F00014F4479A01C047982091F10230E08091AC
:100700000A03992787FD90958217930714F4469A58
:1007100001C046982091F20230E080910A039927A7
:1007200087FD90958217930714F4459A01C0459868
:100730002091F30230E080910A03992787FD90957C
:100740008217930714F4449A01C044982091F4024C
:1007500030E080910A03992787FD909582179307CF
:1007600014F4439A01C043982091F50230E080913F
:100770000A03992787FD90958217930714F4429AEC
:1007800001C042982091F60230E080910A03992737
:1007900087FD90958217930714F4419A01C0419800
:1007A0002091F70230E080910A03992787FD909508
:1007B0008217930714F4409A01C040982091F802E0
:1007C00030E080910A03992787FD9095821793075F
:1007D00014F45F9A01C05F982091F90230E0809193
:1007E0000A03992787FD90958217930714F4A29A1C
:1007F00001C0A2982091FA0230E080910A03992763
:1008000087FD90958217930714F4A19A01C0A198CF
:100810002091FB0230E080910A03992787FD909593
:100820008217930714F4A09A01C0A0982091FC02AB
:1008300030E080910A03992787FD909582179307EE
:1008400024F480910B01806803C080910B018F77A5
:1008500080930B012091FD0230E080910A039927DB
:1008600087FD90958217930724F480910B01806493
:1008700003C080910B018F7B80930B012091FE02BE
:1008800030E080910A03992787FD9095821793079E
:1008900024F480910B01806203C080910B018F7D55
:1008A00080930B012091FF0230E080910A03992789
:1008B00087FD90958217930724F480910B01806146
:1008C00003C080910B018F7E80930B012091000368
:1008D00030E080910A03992787FD9095821793074E
:1008E00024F480910B01886003C080910B01877F05
:1008F00080930B012091010330E080910A03992736
:1009000087FD90958217930724F480910B018460F2
:1009100003C080910B018B7F80930B012091020318
:1009200030E080910A03992787FD909582179307FD
:1009300024F480910B01826003C080910B018D7FB4
:1009400080930B012091030330E080910A039927E3
:1009500087FD90958217930724F480910B018160A5
:1009600003C080910B018E7F80930B0120910403C3
:1009700030E080910A03992787FD909582179307AD
:1009800014F42B9A01C02B982091050330E080913C
:100990000A03992787FD90958217930714F42A9AE2
:1009A00001C02A982091060330E080910A0399271C
:1009B00087FD90958217930714F4299A01C029980E
:1009C0002091070330E080910A03992787FD9095D5
:1009D0008217930714F4289A01C02898FF91EF9189
:1009E000BF91AF919F918F917F916F915F914F9147
:1009F0003F912F910F900BBE0F900FBE0F901F9045
:100A00001895E82F80911903882331F0EA3158F4C2
:100A1000F0E0EC51FF4F05C0EA3130F4F0E0E25075
:100A2000FF4F8491089580E008950E94010590E7AA
:100A3000980F933020F481E080931603089584503A
:100A4000843820F481E080931703089581E0809337
:100A5000130308958A3170F5E82FF0E0E65EFC4F4D
:100A60009081392F30789F77662361F0963010F5AA
:100A7000953029F4311103C030E821E001C020E0B5
:100A80009F5F0CC09923B1F0913031F421E0311116
:100A900001C020E030E001C020E09150932B908312
:100AA000222341F08F3021F481E0809318030895D0
:100AB0000C9415050895F894E82FF0E0EE0FFF1F51
:100AC000EC5EFC4F80819181789408951F920F9283
:100AD0000FB60F9211248F939F93AF93BF93809182
:100AE000A2039091A303A091A403B091A503019642
:100AF000A11DB11D8093A2039093A303A093A4030F
:100B0000B093A503BF91AF919F918F910F900FBEAE
:100B10000F901F901895F8946091A2037091A30311
:100B20008091A4039091A50378940895CF92DF92C9
:100B3000EF92FF920F931F93CF93DF938C01EB0102
:100B4000FC012081318142815381688179818A81D0
:100B50009B810E943D120E94B6146B017C01F8013A
:100B600024813581468157816C817D818E819F8171
:100B70000E943D120E94B6149B01AC01C701B60150
:100B80000E943E12DF91CF911F910F91FF90EF9045
:100B9000DF90CF900C947814EF92FF920F931F93F5
:100BA000CF93DF93EC01488359836A837B830C8363
:100BB0001D832E833F83B7010E949605688779873E
:100BC0008A879B87DF91CF911F910F91FF90EF90C4
:100BD0000895FC01108A118A128A138A14861586D8
:100BE00016861786158A148A0895CF92DF92EF929F
:100BF000FF920F931F93CF93DF93EC01680179016C
:100C00009A01AB016C857D858E859F850E943E1281
:100C10006C877D878E879F87A70196016889798970
:100C20008A899B890E943E12688B798B8A8B9B8B69
:100C30008C899D8901969D8B8C8BDF91CF911F9123
:100C40000F91FF90EF90DF90CF900895CF93DF93B7
:100C5000CDB7DEB76A8D7B8D882777FD8095982F7D
:100C60000E9441139B01AC016A897B898C899D8913
:100C70000E94A612DF91CF910895CF93DF93CDB755
:100C8000DEB76A8D7B8D882777FD8095982F0E942F
:100C900041139B01AC016E897F89888D998D0E94DB
:100CA000A612DF91CF91089510929E0310929F0398
:100CB0001092A0031092A10310929203109293033A
:100CC00010929403109295030E948B056093A803E1
:100CD0007093A9038093AA039093AB0310928D03A2
:100CE00010928C03109283031092820360E088E3D9
:100CF0000E94B010811101C0FFCF1092AC0310927E
:100D0000AD031092AE031092AF0310922404109220
:100D1000250410922604109227040E94EA0F0E94D4
:100D20008B056093B0037093B1038093B2039093EB
:100D3000B3030E948B05609396037093970380938F
:100D4000980390939903089520E030E040E855E43B
:100D50000E94F1130E9454140E940E139B012C5EFA
:100D60003F4F2932310540F4220F331FF901E2577A
:100D7000FD4F808191810895CB0108952F923F927C
:100D80004F925F926F927F928F929F92AF92BF929B
:100D9000CF92DF92EF92FF920F931F93CF93DF9347
:100DA000CDB7DEB766970FB6F894DEBF0FBECDBFE6
:100DB0001C0140909A0350909B0360909C0370909C
:100DC0009D0380918E0390918F03A0919003B09129
:100DD000910389839A83AB83BC838091240490918F
:100DE0002504A0912604B09127048D839E83AF83B0
:100DF000B8878090AC039090AD03A090AE03B09004
:100E0000AF031092AC031092AD031092AE03109298
:100E1000AF0310922404109225041092260410921D
:100E200027040E948B05C090B003D090B103E090DE
:100E3000B203F090B3036C197D098E099F090E94DB
:100E40003F1320E030E04AE754E40E94A6126B0111
:100E50007C010E948B056093B0037093B103809373
:100E6000B2039093B303A70196016D817E818F81B8
:100E700098850E94A6126D877E878F87988BA70121
:100E80009601C501B4010E94A612698B7A8B8B8BE7
:100E90009C8B809182039091830326E1D22ED89E71
:100EA0009001D99E300D1124D901AC54BC4F7D0165
:100EB00009811A812B813C81B301A201CD010E94DD
:100EC000F5050E948B058090A8039090A903A0903F
:100ED000AA03B090AB03DC01CB0188199909AA09D8
:100EE000BB09893E9340A105B10508F4B8C18091C2
:100EF000820390918303019665E070E00E941315D0
:100F00009093830380938203D89E9001D99E300DE5
:100F10001124C9018C549C4F9E8B8D8B09811A81A1
:100F20002B813C81B301A2010E94CC0580918C03EE
:100F300090918D03853091050CF473C12AE037ED53
:100F400043E25CE36091BC037091BD038091BE03FA
:100F50009091BF030E94A21287FF68C12AE037ED7B
:100F600043E25CE36091D2037091D3038091D40398
:100F70009091D5030E94A21287FF58C12AE037ED55
:100F800043E25CE36091E8037091E9038091EA0336
:100F90009091EB030E94A21287FF48C12AE037ED2F
:100FA00043E25CE36091FE037091FF0380910004D3
:100FB000909101040E94A21287FF38C12AE037ED08
:100FC00043E25CE36091140470911504809116046F
:100FD000909117040E94A21287FF28C16091C80354
:100FE0007091C903882777FD8095982F0E9441133F
:100FF0006B017C016091DE037091DF03882777FD30
:101000008095982F0E94411369837A838B839C83F8
:101010006091F4037091F503882777FD8095982FF0
:101020000E9441136D837E838F83988760910A04A9
:1010300070910B04882777FD8095982F0E944113AB
:1010400069877A878B879C8760912004709121043F
:10105000882777FD8095982F0E9441132B013C0132
:10106000A70196016091C0037091C1038091C203F2
:101070009091C3030E94A6124B015C0129813A8121
:101080004B815C816091D6037091D7038091D80326
:101090009091D9030E94A6129B01AC01C501B40135
:1010A0000E943E124B015C012D813E814F8158858B
:1010B0006091EC037091ED038091EE039091EF034A
:1010C0000E94A6129B01AC01C501B4010E943E1210
:1010D0004B015C0129853A854B855C856091020452
:1010E0007091030480910404909105040E94A6125B
:1010F0009B01AC01C501B4010E943E124B015C0191
:10110000A3019201609118047091190480911A044E
:1011100090911B040E94A6129B01AC01C501B40171
:101120000E943E1220E030E040EA50E40E94A61205
:101130006093920370939303809394039093950329
:10114000A70196016091C4037091C5038091C60305
:101150009091C7030E94A6126B017C0129813A81FC
:101160004B815C816091DA037091DB038091DC0339
:101170009091DD030E94A6129B01AC01C701B6014C
:101180000E943E126B017C012D813E814F8158856A
:101190006091F0037091F1038091F2039091F30359
:1011A0000E94A6129B01AC01C701B6010E943E122B
:1011B0006B017C0129853A854B855C85609106042D
:1011C0007091070480910804909109040E94A6126E
:1011D0009B01AC01C701B6010E943E126B017C016C
:1011E000A301920160911C0470911D0480911E0462
:1011F00090911F040E94A6129B01AC01C701B60189
:101200000E943E1220E030E040EA50E40E94A61224
:1012100060939E0370939F038093A0039093A10318
:1012200005C0019690938D0380938C03AD89BE8990
:1012300050961D921D921D921C925397FD0114868B
:10124000158616861786158A148A0E948B05609368
:10125000A8037093A9038093AA039093AB036D85B1
:101260007E858F8598890E94A406D1018D939C93D9
:1012700069897A898B899C890E94A406F1019383EC
:10128000828366960FB6F894DEBF0FBECDBFDF91A6
:10129000CF911F910F91FF90EF90DF90CF90BF9073
:1012A000AF909F908F907F906F905F904F903F9006
:1012B0002F9008954F925F926F927F928F929F929C
:1012C000AF92BF92CF92DF92EF92FF92CF93DF93D4
:1012D000CDB7DEB728970FB6F894DEBF0FBECDBFEF
:1012E0000E94EA0FC0903304D0903404E09035049B
:1012F000F090360480912E0490912F04A091300438
:10130000B091310489839A83AB83BC838091370485
:1013100090913804A0913904B0913A048D839E8352
:10132000AF83B8870E948B058090960390909703B7
:10133000A0909803B0909903681979098A099B09CC
:101340000E943F1320E030E04AE754E40E94A612D6
:101350004B015C010E948B05609396037093970389
:10136000809398039093990320919A0330919B0363
:1013700040919C0350919D03C701B6010E943E120B
:101380002B013C016091920370919303809194032F
:10139000909195039B01AC010E943E129B01AC0110
:1013A000C301B2010E943D12A50194010E94F113F4
:1013B00020E030E040E05FE30E94F1139B01AC01CC
:1013C0006091240470912504809126049091270453
:1013D0000E943E1260932404709325048093260497
:1013E0009093270420918E0330918F0340919003B6
:1013F0005091910369817A818B819C810E943E1278
:101400002B013C0160919E0370919F038091A0038A
:101410009091A1039B01AC010E943E129B01AC0183
:10142000C301B2010E943D12A50194010E94F11373
:1014300020E030E040E05FE30E94F1139B01AC014B
:101440006091AC037091AD038091AE039091AF03B6
:101450000E943E126093AC037093AD038093AE0381
:101460009093AF03C0929A03D0929B03E0929C03A7
:10147000F0929D0389819A81AB81BC8180938E0318
:1014800090938F03A0939003B09391038D819E81DD
:10149000AF81B8858093880390938903A0938A03D2
:1014A000B0938B0328960FB6F894DEBF0FBECDBF66
:1014B000DF91CF91FF90EF90DF90CF90BF90AF90F2
:1014C0009F908F907F906F905F904F9008958F9234
:1014D0009F92AF92BF92CF92DF92FF920F931F9392
:1014E000CF93DF9300D01F92CDB7DEB70E945A0989
:1014F0001C821B821A821982CE0101960E94BE06AE
:10150000C980DA800B811C81C11420EFD2064CF017
:1015100081E0C81680E1D8063CF0C12C60E1D62EEF
:1015200003C0C12C70EFD72E011520EF12073CF03D
:10153000013080E118072CF000E010E102C000E06B
:1015400010EF80E00E945B059C01AEEFB0E00E94CE
:10155000E914DC01CB019E5FAF4FBF4F4AE0B59568
:10156000A795979587954A95D1F751E8F52EF80EEE
:101570000E948B058090280490902904A0902A0452
:10158000B0902B04DC01CB0188199909AA09BB0989
:1015900081319742A105B10508F44BC0C601D7FEC1
:1015A00004C0882799278C199D098536910554F424
:1015B000C80117FF04C088279927801B910B853627
:1015C0009105BCF1C601AA2797FDA095BA2F9C01F1
:1015D000AD01305F4F4F5F4FAFEFB0E00E94F814A6
:1015E000DC01CB012DE0B595A795979587952A95B8
:1015F000D1F7E0E8E80F22273327201B310BC90180
:10160000AA2797FDA095BA2F9C01AD01305F4F4FDF
:101610005F4FAFEFB0E00E94F814DC01CB013DE07A
:10162000B595A795979587953A95D1F760E8680F96
:1016300002C060E0E0E087E080933403E09335038C
:1016400060933603F09237031092380310923903F7
:1016500010923A0310923B0388E00F900F900F9086
:101660000F90DF91CF911F910F91FF90DF90CF905E
:10167000BF90AF909F908F9008954F925F926F921E
:101680007F92AF92BF92CF92DF92EF92FF920F9331
:101690001F93CF93DF93CDB7DEB729013A019B01AA
:1016A000AC0124193509460957098A899B89AC89F7
:1016B000BD89BC01CD016A197B098C099D090E9475
:1016C0000315A801970124193509460957090E94F5
:1016D0002715822F8A0DDF91CF911F910F91FF90D7
:1016E000EF90DF90CF90BF90AF907F906F905F9022
:1016F0004F900895749A6C98759A6D98A59A9D98D4
:10170000739A6B98809102018860809302018091A6
:101710000101877F809301018091020180618093A4
:101720000201809101018F7E80930101809102016D
:10173000806280930201809101018F7D809301017D
:1017400080910201806480930201809101018F7B6E
:10175000809301012C9A24982D9A25982E9A2698E8
:101760002F9A2798809105018260809305018091CE
:1017700004018D7F80930401809105018160809335
:101780000501809104018E7F809304018091020104
:10179000826080930201809101018D7F809301011D
:1017A00080910201816080930201809101018E7F0E
:1017B000809301018E9A86988F9A8798809108016C
:1017C000816080930801809107018E7F80930701DB
:1017D00080910801826080930801809107018D7FCC
:1017E00080930701809108018460809308018091B3
:1017F00007018B7F809307018091080188608093A7
:10180000080180910701877F80930701809108017B
:10181000806180930801809107018F7E809307018A
:1018200080910801806280930801809107018F7D7B
:101830008093070180910801806480930801809162
:1018400007018F7B80930701809108018068809356
:101850000801809107018F77809307018A98829809
:1018600080E480937C008FEC80937A0080919100DB
:101870008A608093910087E08093990080ED809347
:10188000980080917100826080937100789460E08C
:1018900088E30E94B010811101C0FFCF2FEF84E3D5
:1018A0009CE0215080409040E1F700C000000E9481
:1018B000EA0F0E9454060E948B05609328047093DF
:1018C000290480932A0490932B040895CF93809148
:1018D00018038111D4C06CB1C1E0629561706C27AE
:1018E0000E942A056CB165FB662760F96C2781E0D0
:1018F0000E942A0562B365FB662760F96C2782E0C7
:101900000E942A056CB163FB662760F96C2783E0AF
:101910000E942A056091000163FB662760F96C272D
:1019200084E00E942A0560910001629561706C2735
:1019300085E00E942A056091000165FB662760F939
:101940006C2786E00E942A056091000166FB6627ED
:1019500060F96C2787E00E942A0563B16295617087
:101960006C2788E00E942A0563B165FB662760F951
:101970006C2789E00E942A0563B166FB662760F93F
:101980006C278AE00E942A0563B16095661F66276E
:10199000661F8BE00E942A056091030166956170C5
:1019A0006C278CE00E942A056091030161706C270E
:1019B0008DE00E942A0560910001669561706C2798
:1019C0008EE00E942A056091000161706C278FE013
:1019D0000E942A056FB166FB662760F96C2780E1DB
:1019E0000E942A056FB16095661F6627661F81E118
:1019F0000E942A056091060161706C2782E10E94B5
:101A00002A0560910601669561706C2783E10E944A
:101A10002A056091060162FB662760F96C2784E164
:101A20000E942A056091060163FB662760F96C2716
:101A300085E10E942A0560910601629561706C271C
:101A400086E10E942A056091060165FB662760F920
:101A50006C2787E10E942A056091060166FB6627D4
:101A600060F96C2788E10E942A0560910601609563
:101A7000661F6627661F89E1CF910C942A05CF91D6
:101A800008958F929F92BF92CF92DF92EF92FF9232
:101A90000F931F93CF93DF931F92CDB7DEB70097BD
:101AA00011F480E007C14C010E947E0F20911103C8
:101AB00030911203AC01421B530B57FDF2CF02963B
:101AC00090931203809311030E94660C8091180377
:101AD000813039F09091180380911703923079F595
:101AE00028C082E0809318035AE1E52E53E0F52EDA
:101AF00000E010E00F30110599F0D7018C91882398
:101B000079F0F801E250FF4F8491F801EC51FF4F5A
:101B1000E4918E1729F0802F0E941505F70110829D
:101B20000F5F1F4FFFEFEF1AFF0A0A31110511F780
:101B3000D1CF90911603911102C08823D1F0882350
:101B400019F11092170387E0E5E3F3E0DF011D923E
:101B50008A95E9F781E0809334030AE113E092E08B
:101B6000D12C2DE3C22E30E4B32EEE24E394F12CDD
:101B70003BC080911303811107C01092180380911C
:101B8000290380788093190380911603882361F0DC
:101B9000109216038AE1E82E83E0F82E00E010E0B0
:101BA000CC24C394D12C65C0809110038F3F39F0B1
:101BB00090911303992319F08F5F80931003809104
:101BC00010038F3F19F08F5F8093100380911003F3
:101BD000882309F466CF109210031092130387E054
:101BE00090E00E94670A61C0F80181918F0187FF30
:101BF0003AC08D2D99830E9401052CEF280F998101
:101C0000243888F520E8280F283060F4822F9701C7
:101C100001C0220F8A95EAF780913503282B209383
:101C2000350321C09830F8F4292F30E0803761F077
:101C30008137A1F480913503826080933503F901E7
:101C4000EC5CFC4FB0820EC08091350384608093C1
:101C50003503F901EC5CFC4FC08204C0F901EC5C77
:101C6000FC4F80839F5FD394FAE1DF12BDCF88E001
:101C70001CC0D7018D917D0187FF0FC0812F0E946D
:101C8000010590E7980F933040F4F601092E02C049
:101C9000EE0FFF1F0A94E2F70E2B1F5F1A3149F770
:101CA00082E0809334030093350324E333E0D401CE
:101CB0002D933C930F90DF91CF911F910F91FF9047
:101CC000EF90DF90CF90BF909F908F9008951F92DC
:101CD0000F920FB60F9211240BB60F922F933F93D2
:101CE0008F939F93EF93FF9380910E0390910F0337
:101CF0002091780030917900FC01EE0FFF1FEC5E1F
:101D0000FC4F318320839C012150310937FD05C0F0
:101D100030930F0320930E0304C090930F0380931E
:101D20000E0380917C00807E80937C0080917C00FB
:101D3000826080937C0080917B00877F80937B0012
:101D400080917B0080937B0080917A0080648093F7
:101D50007A00FF91EF919F918F913F912F910F907A
:101D60000BBE0F900FBE0F901F901895FC01838142
:101D700091812081921B282F291B2F3F61F0918197
:101D80008923DF01A80FB11D14966C9381818F5FA9
:101D9000818380E008958FEF0895FC019181808117
:101DA000981791F06115710579F0908183818923ED
:101DB000DF01A80FB11D14968C91DB018C938081FB
:101DC0008F5F808380E008958FEF0895FC019181FB
:101DD0008081981751F020819381292330E02C5F76
:101DE0003F4FCF01820F931F089580E090E0089548
:101DF000FC0190818281890F80830895FC012381F9
:101E000081819081891B922F981B9F3F49F081818E
:101E1000282330E02C5F3F4FCF01820F931F08959E
:101E200080E090E00895FC0191818281890F818397
:101E300008951F920F920FB60F9211242F933F9384
:101E40008F939F932091840030918500809140036F
:101E5000909141032817390748F480913E039091EF
:101E60003F03019690933F0380933E0330934103D9
:101E70002093400380913C0390913D030196909301
:101E80003D0380933C0380918800909189008058A5
:101E9000914C90938900809388009F918F913F91FE
:101EA0002F910F900FBE0F901F9018950F931F93B7
:101EB0004FB7F894209140033091410380913E0345
:101EC00090913F034FBF609184007091850062172D
:101ED000730708F40196A0E0B0E0DC019927882799
:101EE000AB0160E070E08C019D01042B152B262BCB
:101EF000372BC901B8011F910F9108952FB7F8949E
:101F000080913C0390913D032FBF0895CF93DF93C1
:101F10001F92CDB7DEB7698321E030E0AE014F5F9D
:101F20005F4F682F809132040E9476110F90DF91ED
:101F3000CF910895CF93DF931F92CDB7DEB721E005
:101F400030E0AE014F5F5F4F682F809132040E94F6
:101F5000AA1189810F90DF91CF910895CF93DF93DC
:101F6000D82F8AE20E949A0FC82F60E08AE20E946E
:101F7000860F6D2F63708EE00E94860F6C2F61605C
:101F80008AE2DF91CF910C94860F8EE00E949A0F27
:101F900083700895CF93DF93C82F8AE20E949A0F2F
:101FA000D82F60E08AE20E94860F6D2F677C88E060
:101FB000C89F90011124622B61608AE2DF91CF916A
:101FC0000C94860F8AE20E949A0F869586958695D4
:101FD00087700895CF92DF92EF92FF928091320442
:101FE0000E94281181E00E945111809132048F5F7C
:101FF0000E9428110E9462111092A6038093A703E9
:102000000E9462112091A6033091A703282B3595D9
:102010002795359527953093A7032093A6030E9413
:10202000621110922204809323040E946211209175
:10203000220430912304282B359527953595279533
:1020400030932304209322040E94621110922C04E6
:1020500080932D040E946C1120912C0430912D044A
:10206000282B359527953595279530932D0420936A
:102070002C040E94C50F823039F0813041F081116B
:1020800009C060E070E108C060E074E005C060E095
:1020900078E002C061E070E080E090E00E943F13D1
:1020A0006B017C016091A6037091A703882777FDDF
:1020B0008095982F0E944113A70196010E94A612B5
:1020C0006093330470933404809335049093360402
:1020D0006091220470912304882777FD8095982FC2
:1020E0000E944113A70196010E94A61260932E043C
:1020F00070932F04809330049093310460912C04EA
:1021000070912D04882777FD8095982F0E944113A8
:10211000A70196010E94A6126093370470933804B9
:102120008093390490933A04FF90EF90DF90CF9022
:102130000C94EC118AE20E949A0F682F6E7F8AE25B
:102140000E94860F8AE20E949A0F80FDF6CF0895C2
:102150008AE20E949A0F682F61608AE20C94860FCF
:102160001F93CF93DF931F92CDB7DEB7162F8983CE
:102170000E94FE108981809332048DE00E949A0FA4
:102180008A31C9F460E48BE20E94860F8BE20E94E0
:102190009A0F86FDFBCF0E949A10812F0E94AE0FEE
:1021A00062E08BE20E94860F80E00E94CA0F0E94CC
:1021B000A81081E001C080E00F90DF91CF911F91C6
:1021C00008950E949A108CE20E949A0F8C7F682FCB
:1021D00062608CE20E94860F8EE20E949A0F682F46
:1021E00061608EE20E94860F8DE20E949A0F682F36
:1021F00061608DE20E94860F0C94A810459A449A63
:102200001092B9008CE08093B80008951092BC0041
:1022100094EA9093BC009091BC0097FFFCCF909102
:10222000B900987F983011F081E008958093BB0049
:1022300084E88093BC008091BC0087FFFCCF809134
:10224000B900887F883111F0803471F780E00895FB
:1022500024EA34E844E92093BC009091BC0097FF45
:10226000FCCF9091B900987F983011F0903199F798
:102270008093BB003093BC009091BC0097FFFCCFD3
:102280009091B900987F903211F0983539F44093CD
:10229000BC009091BC0094FDFCCFDDCF80E090E0CD
:1022A00008958093BB0084E88093BC008091BC00BB
:1022B00087FD06C08091B900887F8832D9F7F6CFB4
:1022C00080E0089584EC8093BC008091BC0087FF7F
:1022D000FCCF8091BB00089584E88093BC0080917E
:1022E000BC0087FFFCCF8091BB000895CF92DF92A6
:1022F000EF92FF920F931F93CF93DF931F92CDB76F
:10230000DEB77A01890169830E9428116981892BCE
:1023100011F081E015C0862F0E94511167010E0D4A
:102320001F1DC016D10641F0F60181916F010E9478
:1023300051118823B1F3EDCF84E98093BC0080E094
:102340000F90DF91CF911F910F91FF90EF90DF9051
:10235000CF900895CF92DF92EF92FF920F931F9349
:10236000CF93DF931F92CDB7DEB7D82E7A018901C4
:1023700069830E9428116981892B11F081E022C0B4
:10238000862F0E9451118D2D81600E942811892B6A
:10239000A9F7670101501109C6018E199F0980171D
:1023A000910730F40E946211F60181936F01F4CF1E
:1023B000E00EF11E0E946C11F701808384E9809386
:1023C000BC0080E00F90DF91CF911F910F91FF90A3
:1023D000EF90DF90CF90089584E98093BC0008953A
:1023E000CF93DF931F921F92CDB7DEB78091840009
:1023F000909185008058914C90938900809388003B
:1024000081E08093810082E080936F000E94AF00A2
:102410000E94BE010E947A0B83B7817F83BF7894AC
:102420000E945001009751F0FC012081283019F4DE
:1024300001960E942C020E945401F2CF1A82198246
:10244000CE0101960E94410DF82E882389F00E944A
:10245000DB008C01009721F34F2D50E069817A81D8
:1024600001960E947C15F801F0820E94DF00D8CF0F
:1024700080E090E00E94C000D3CF5058BB27AA272D
:102480000ED075C166D130F06BD120F031F49F3F92
:1024900011F41EF45BC10EF4E095E7FB51C1E92F86
:1024A00077D180F3BA17620773078407950718F08E
:1024B00071F49EF58FC10EF4E0950B2EBA2FA02D6E
:1024C0000B01B90190010C01CA01A0011124FF27E1
:1024D000591B99F0593F50F4503E68F11A16F040DC
:1024E000A22F232F342F4427585FF3CF46953795DB
:1024F0002795A795F0405395C9F77EF41F16BA0BA0
:10250000620B730B840BBAF09150A1F0FF0FBB1F4D
:10251000661F771F881FC2F70EC0BA0F621F731F96
:10252000841F48F4879577956795B795F7959E3FF3
:1025300008F0B3CF9395880F08F09927EE0F979581
:1025400087950895D9D008F481E008950CD00FC183
:1025500007D140F0FED030F021F45F3F19F0F0C019
:10256000511139C1F3C014D198F39923C9F35523FC
:10257000B1F3951B550BBB27AA2762177307840776
:1025800038F09F5F5F4F220F331F441FAA1FA9F32C
:1025900033D00E2E3AF0E0E830D091505040E6951E
:1025A000001CCAF729D0FE2F27D0660F771F881F7F
:1025B000BB1F261737074807AB07B0E809F0BB0B6E
:1025C000802DBF01FF2793585F4F2AF09E3F510592
:1025D00068F0B6C000C15F3FECF3983EDCF386952F
:1025E00077956795B795F7959F5FC9F7880F911D08
:1025F0009695879597F90895E1E0660F771F881FF4
:10260000BB1F621773078407BA0720F0621B730BA6
:10261000840BBA0BEE1F88F7E095089504D06894F8
:10262000B111D9C00895BCD088F09F5790F0B92F50
:102630009927B751A0F0D1F0660F771F881F991F17
:102640001AF0BA95C9F712C0B13081F0C3D0B1E029
:102650000895C0C0672F782F8827B85F39F0B93F39
:10266000CCF3869577956795B395D9F73EF4909519
:102670008095709561957F4F8F4F9F4F0895E89497
:1026800009C097FB3EF490958095709561957F4FBA
:102690008F4F9F4F9923A9F0F92F96E9BB27939568
:1026A000F695879577956795B795F111F8CFFAF478
:1026B000BB0F11F460FF1BC06F5F7F4F8F4F9F4FA9
:1026C00016C0882311F096E911C0772321F09EE807
:1026D000872F762F05C0662371F096E8862F70E06D
:1026E00060E02AF09A95660F771F881FDAF7880F47
:1026F0009695879597F90895990F0008550FAA0B9D
:10270000E0E8FEEF16161706E807F907C0F0121604
:102710001306E407F50798F0621B730B840B950B07
:1027200039F40A2661F0232B242B252B21F408955C
:102730000A2609F4A140A6958FEF811D811D0895F9
:1027400097F99F6780E870E060E008959FEF80EC64
:10275000089500240A941616170618060906089507
:1027600000240A9412161306140605060895092E6D
:102770000394000C11F4882352F0BB0F40F4BF2BDC
:1027800011F460FF04C06F5F7F4F8F4F9F4F08951C
:1027900057FD9058440F551F59F05F3F71F0479512
:1027A000880F97FB991F61F09F3F79F087950895F7
:1027B000121613061406551FF2CF4695F1DF08C016
:1027C000161617061806991FF1CF86957105610533
:1027D00008940895E894BB2766277727CB0197F9DB
:1027E00008950BD0C4CFB5DF28F0BADF18F09523D9
:1027F00009F0A6CFABCF1124EECFCADFA0F3959F8F
:10280000D1F3950F50E0551F629FF001729FBB27D7
:10281000F00DB11D639FAA27F00DB11DAA1F649F83
:102820006627B00DA11D661F829F2227B00DA11D36
:10283000621F739FB00DA11D621F839FA00D611DBC
:10284000221F749F3327A00D611D231F849F600DDD
:10285000211D822F762F6A2F11249F5750408AF016
:10286000E1F088234AF0EE0FFF1FBB1F661F771FA2
:10287000881F91505040A9F79E3F510570F060CFDE
:10288000AACF5F3FECF3983EDCF38695779567958A
:10289000B795F795E7959F5FC1F7FE2B880F911DC0
:1028A0009695879597F908957BDFE0F09E37D8F0ED
:1028B0009639B8F49E3848F4672F782F8827985FA8
:1028C000F9CF86957795679593959539D0F3B62F7F
:1028D000B1706B0F711D811D20F4879577956795F9
:1028E000939547C061C077CF11F40EF42FCF5CC031
:1028F00057DFD0F39923D9F3CEF39F57550B87FFBA
:1029000061D00024A0E640EA900180585695979542
:1029100028F4805C660F771F881F20F02617370782
:10292000480730F4621B730B840B202931294A2B92
:10293000A69517940794202531254A2758F7660F46
:10294000771F881F20F026173707480730F4620BDF
:10295000730B840B200D311D411DA09581F7B9012A
:10296000842F9158880F9695879508959B01AC0107
:1029700038CF882371F4772321F09850872B762F56
:1029800007C0662311F499270DC09051862B70E083
:1029900060E02AF09A95660F771F881FDAF7880F94
:1029A0009695879597F908959F3F31F0915020F4BF
:1029B000879577956795B795880F911D969587951B
:1029C00097F9089591505040660F771F881FD2F7EE
:1029D0000895A29FB001B39FC001A39F700D811DF8
:1029E0001124911DB29F700D811D1124911D089518
:1029F0000E94E914A59F900DB49F900DA49F800D97
:102A0000911D11240895DB018F939F930E94F81468
:102A1000BF91AF91A29F800D911DA39F900DB29F7A
:102A2000900D1124089597FB072E16F4009407D0FB
:102A300077FD09D00E94461507FC05D03EF490951D
:102A400081959F4F0895709561957F4F0895052E4C
:102A500097FB1EF400940E943E1557FD07D00E947C
:102A60005A1507FC03D04EF40C943E155095409532
:102A7000309521953F4F4F4F5F4F0895909580952A
:102A8000709561957F4F8F4F9F4F0895AA1BBB1B79
:102A900051E107C0AA1FBB1FA617B70710F0A61B5E
:102AA000B70B881F991F5A95A9F780959095BC017F
:102AB000CD010895A1E21A2EAA1BBB1BFD010DC07A
:102AC000AA1FBB1FEE1FFF1FA217B307E407F507DE
:102AD00020F0A21BB30BE40BF50B661F771F881FBA
:102AE000991F1A9469F760957095809590959B0150
:102AF000AC01BD01CF010895FB01DC0102C00190D2
:0E2B00000D9241505040D8F70895F894FFCF41
:102B0E000000103F00000000000000000000000068
:102B1E0000000000000000000000000000000000A7
:102B2E000000000000000000000000000000000097
:102B3E000000000000000000000000000000000087
:102B4E00000000000000103F000000000000000028
:102B5E000000000000000000000000000000000067
:102B6E000000000000000000000000000000000057
:102B7E000000000000000000000000000000000047
:102B8E000000000000000000000100024402EEFF01
:102B9E00F0FFF2FFF3FFF5FFF6FFF8FFF9FFFAFF84
:102BAE00FBFFFCFFFDFFFEFFFEFFFFFFFFFF000030
:102BBE000000000000000000000000000000000007
:102BCE0001000100020002000300040005000600DF
:102BDE00070008000A000B000D000E001000120086
:022BEE000500E0
:04000005008004284B
:00000001FF
